{
  "contractName": "metaMaster",
  "abi": [
    {
      "inputs": [],
      "stateMutability": "nonpayable",
      "type": "constructor"
    },
    {
      "anonymous": false,
      "inputs": [
        {
          "indexed": true,
          "internalType": "address",
          "name": "creator",
          "type": "address"
        },
        {
          "indexed": false,
          "internalType": "address",
          "name": "collection",
          "type": "address"
        }
      ],
      "name": "NewCollection",
      "type": "event"
    },
    {
      "anonymous": false,
      "inputs": [
        {
          "indexed": true,
          "internalType": "address",
          "name": "previousOwner",
          "type": "address"
        },
        {
          "indexed": true,
          "internalType": "address",
          "name": "newOwner",
          "type": "address"
        }
      ],
      "name": "OwnershipTransferred",
      "type": "event"
    },
    {
      "inputs": [
        {
          "internalType": "address",
          "name": "",
          "type": "address"
        }
      ],
      "name": "collectionOwner",
      "outputs": [
        {
          "internalType": "address",
          "name": "",
          "type": "address"
        }
      ],
      "stateMutability": "view",
      "type": "function"
    },
    {
      "inputs": [],
      "name": "feeCollector",
      "outputs": [
        {
          "internalType": "address",
          "name": "",
          "type": "address"
        }
      ],
      "stateMutability": "view",
      "type": "function"
    },
    {
      "inputs": [],
      "name": "feeInBips",
      "outputs": [
        {
          "internalType": "uint256",
          "name": "",
          "type": "uint256"
        }
      ],
      "stateMutability": "view",
      "type": "function"
    },
    {
      "inputs": [
        {
          "internalType": "address",
          "name": "collection",
          "type": "address"
        },
        {
          "internalType": "uint96",
          "name": "token_id",
          "type": "uint96"
        }
      ],
      "name": "getSaleInfo",
      "outputs": [
        {
          "components": [
            {
              "internalType": "address",
              "name": "sales",
              "type": "address"
            },
            {
              "internalType": "address",
              "name": "collection",
              "type": "address"
            },
            {
              "internalType": "uint96",
              "name": "token_id",
              "type": "uint96"
            },
            {
              "internalType": "address",
              "name": "token",
              "type": "address"
            },
            {
              "internalType": "uint128",
              "name": "price",
              "type": "uint128"
            },
            {
              "internalType": "uint64",
              "name": "duetime",
              "type": "uint64"
            },
            {
              "internalType": "address",
              "name": "seller",
              "type": "address"
            }
          ],
          "internalType": "struct NFTInfoStorage.salesInfo",
          "name": "",
          "type": "tuple"
        }
      ],
      "stateMutability": "view",
      "type": "function"
    },
    {
      "inputs": [
        {
          "internalType": "uint256",
          "name": "limit",
          "type": "uint256"
        },
        {
          "internalType": "uint256",
          "name": "offset",
          "type": "uint256"
        }
      ],
      "name": "getSales",
      "outputs": [
        {
          "components": [
            {
              "internalType": "address",
              "name": "sales",
              "type": "address"
            },
            {
              "internalType": "address",
              "name": "collection",
              "type": "address"
            },
            {
              "internalType": "uint96",
              "name": "token_id",
              "type": "uint96"
            },
            {
              "internalType": "address",
              "name": "token",
              "type": "address"
            },
            {
              "internalType": "uint128",
              "name": "price",
              "type": "uint128"
            },
            {
              "internalType": "uint64",
              "name": "duetime",
              "type": "uint64"
            },
            {
              "internalType": "address",
              "name": "seller",
              "type": "address"
            }
          ],
          "internalType": "struct NFTInfoStorage.salesInfo[]",
          "name": "records",
          "type": "tuple[]"
        }
      ],
      "stateMutability": "view",
      "type": "function"
    },
    {
      "inputs": [
        {
          "internalType": "address",
          "name": "collcetion",
          "type": "address"
        },
        {
          "internalType": "uint256",
          "name": "limit",
          "type": "uint256"
        },
        {
          "internalType": "uint256",
          "name": "offset",
          "type": "uint256"
        }
      ],
      "name": "getSalesByCollection",
      "outputs": [
        {
          "components": [
            {
              "internalType": "address",
              "name": "sales",
              "type": "address"
            },
            {
              "internalType": "address",
              "name": "collection",
              "type": "address"
            },
            {
              "internalType": "uint96",
              "name": "token_id",
              "type": "uint96"
            },
            {
              "internalType": "address",
              "name": "token",
              "type": "address"
            },
            {
              "internalType": "uint128",
              "name": "price",
              "type": "uint128"
            },
            {
              "internalType": "uint64",
              "name": "duetime",
              "type": "uint64"
            },
            {
              "internalType": "address",
              "name": "seller",
              "type": "address"
            }
          ],
          "internalType": "struct NFTInfoStorage.salesInfo[]",
          "name": "records",
          "type": "tuple[]"
        }
      ],
      "stateMutability": "view",
      "type": "function"
    },
    {
      "inputs": [
        {
          "internalType": "address",
          "name": "user",
          "type": "address"
        },
        {
          "internalType": "uint256",
          "name": "limit",
          "type": "uint256"
        },
        {
          "internalType": "uint256",
          "name": "offset",
          "type": "uint256"
        }
      ],
      "name": "getSalesByUser",
      "outputs": [
        {
          "components": [
            {
              "internalType": "address",
              "name": "sales",
              "type": "address"
            },
            {
              "internalType": "address",
              "name": "collection",
              "type": "address"
            },
            {
              "internalType": "uint96",
              "name": "token_id",
              "type": "uint96"
            },
            {
              "internalType": "address",
              "name": "token",
              "type": "address"
            },
            {
              "internalType": "uint128",
              "name": "price",
              "type": "uint128"
            },
            {
              "internalType": "uint64",
              "name": "duetime",
              "type": "uint64"
            },
            {
              "internalType": "address",
              "name": "seller",
              "type": "address"
            }
          ],
          "internalType": "struct NFTInfoStorage.salesInfo[]",
          "name": "records",
          "type": "tuple[]"
        }
      ],
      "stateMutability": "view",
      "type": "function"
    },
    {
      "inputs": [],
      "name": "getSalesCount",
      "outputs": [
        {
          "internalType": "uint256",
          "name": "",
          "type": "uint256"
        }
      ],
      "stateMutability": "view",
      "type": "function"
    },
    {
      "inputs": [
        {
          "internalType": "address",
          "name": "user",
          "type": "address"
        }
      ],
      "name": "getSalesCountByUser",
      "outputs": [
        {
          "internalType": "uint256",
          "name": "",
          "type": "uint256"
        }
      ],
      "stateMutability": "view",
      "type": "function"
    },
    {
      "inputs": [
        {
          "internalType": "address",
          "name": "user",
          "type": "address"
        },
        {
          "internalType": "uint256",
          "name": "limit",
          "type": "uint256"
        },
        {
          "internalType": "uint256",
          "name": "offset",
          "type": "uint256"
        }
      ],
      "name": "getUserBids",
      "outputs": [
        {
          "components": [
            {
              "internalType": "address",
              "name": "sales",
              "type": "address"
            },
            {
              "internalType": "address",
              "name": "collection",
              "type": "address"
            },
            {
              "internalType": "uint96",
              "name": "token_id",
              "type": "uint96"
            },
            {
              "internalType": "address",
              "name": "token",
              "type": "address"
            },
            {
              "internalType": "uint128",
              "name": "price",
              "type": "uint128"
            },
            {
              "internalType": "uint64",
              "name": "duetime",
              "type": "uint64"
            },
            {
              "internalType": "address",
              "name": "seller",
              "type": "address"
            }
          ],
          "internalType": "struct NFTInfoStorage.salesInfo[]",
          "name": "records",
          "type": "tuple[]"
        }
      ],
      "stateMutability": "view",
      "type": "function"
    },
    {
      "inputs": [
        {
          "internalType": "address",
          "name": "user",
          "type": "address"
        }
      ],
      "name": "getUserBidsCount",
      "outputs": [
        {
          "internalType": "uint256",
          "name": "",
          "type": "uint256"
        }
      ],
      "stateMutability": "view",
      "type": "function"
    },
    {
      "inputs": [
        {
          "internalType": "address",
          "name": "user",
          "type": "address"
        },
        {
          "internalType": "uint256",
          "name": "limit",
          "type": "uint256"
        },
        {
          "internalType": "uint256",
          "name": "offset",
          "type": "uint256"
        }
      ],
      "name": "getUserBuys",
      "outputs": [
        {
          "components": [
            {
              "internalType": "address",
              "name": "sales",
              "type": "address"
            },
            {
              "internalType": "address",
              "name": "collection",
              "type": "address"
            },
            {
              "internalType": "uint96",
              "name": "token_id",
              "type": "uint96"
            },
            {
              "internalType": "address",
              "name": "token",
              "type": "address"
            },
            {
              "internalType": "uint128",
              "name": "price",
              "type": "uint128"
            },
            {
              "internalType": "uint64",
              "name": "duetime",
              "type": "uint64"
            },
            {
              "internalType": "address",
              "name": "seller",
              "type": "address"
            }
          ],
          "internalType": "struct NFTInfoStorage.salesInfo[]",
          "name": "records",
          "type": "tuple[]"
        }
      ],
      "stateMutability": "view",
      "type": "function"
    },
    {
      "inputs": [
        {
          "internalType": "address",
          "name": "user",
          "type": "address"
        }
      ],
      "name": "getUserBuysCount",
      "outputs": [
        {
          "internalType": "uint256",
          "name": "",
          "type": "uint256"
        }
      ],
      "stateMutability": "view",
      "type": "function"
    },
    {
      "inputs": [
        {
          "internalType": "uint256",
          "name": "",
          "type": "uint256"
        }
      ],
      "name": "marketSales",
      "outputs": [
        {
          "internalType": "address",
          "name": "",
          "type": "address"
        }
      ],
      "stateMutability": "view",
      "type": "function"
    },
    {
      "inputs": [],
      "name": "owner",
      "outputs": [
        {
          "internalType": "address",
          "name": "",
          "type": "address"
        }
      ],
      "stateMutability": "view",
      "type": "function"
    },
    {
      "inputs": [
        {
          "internalType": "uint256",
          "name": "record",
          "type": "uint256"
        },
        {
          "internalType": "address",
          "name": "bidder",
          "type": "address"
        }
      ],
      "name": "recordDelBid",
      "outputs": [],
      "stateMutability": "nonpayable",
      "type": "function"
    },
    {
      "inputs": [
        {
          "internalType": "uint256",
          "name": "record",
          "type": "uint256"
        },
        {
          "internalType": "address",
          "name": "seller",
          "type": "address"
        }
      ],
      "name": "recordItemCancel",
      "outputs": [],
      "stateMutability": "nonpayable",
      "type": "function"
    },
    {
      "inputs": [
        {
          "internalType": "uint256",
          "name": "record",
          "type": "uint256"
        },
        {
          "internalType": "address",
          "name": "seller",
          "type": "address"
        },
        {
          "internalType": "address",
          "name": "buyer",
          "type": "address"
        },
        {
          "internalType": "address",
          "name": "token",
          "type": "address"
        },
        {
          "internalType": "uint256",
          "name": "price",
          "type": "uint256"
        }
      ],
      "name": "recordItemSold",
      "outputs": [],
      "stateMutability": "nonpayable",
      "type": "function"
    },
    {
      "inputs": [
        {
          "internalType": "uint256",
          "name": "record",
          "type": "uint256"
        },
        {
          "internalType": "address",
          "name": "bidder",
          "type": "address"
        }
      ],
      "name": "recordNewBid",
      "outputs": [],
      "stateMutability": "nonpayable",
      "type": "function"
    },
    {
      "inputs": [
        {
          "internalType": "uint256",
          "name": "record",
          "type": "uint256"
        },
        {
          "internalType": "address",
          "name": "seller",
          "type": "address"
        }
      ],
      "name": "recordNewItem",
      "outputs": [],
      "stateMutability": "nonpayable",
      "type": "function"
    },
    {
      "inputs": [],
      "name": "renounceOwnership",
      "outputs": [],
      "stateMutability": "nonpayable",
      "type": "function"
    },
    {
      "inputs": [
        {
          "internalType": "address",
          "name": "",
          "type": "address"
        }
      ],
      "name": "tokenIsSupported",
      "outputs": [
        {
          "internalType": "bool",
          "name": "",
          "type": "bool"
        }
      ],
      "stateMutability": "view",
      "type": "function"
    },
    {
      "inputs": [
        {
          "internalType": "address",
          "name": "newOwner",
          "type": "address"
        }
      ],
      "name": "transferOwnership",
      "outputs": [],
      "stateMutability": "nonpayable",
      "type": "function"
    },
    {
      "inputs": [
        {
          "internalType": "address",
          "name": "",
          "type": "address"
        },
        {
          "internalType": "uint256",
          "name": "",
          "type": "uint256"
        }
      ],
      "name": "userOwnedCollections",
      "outputs": [
        {
          "internalType": "address",
          "name": "",
          "type": "address"
        }
      ],
      "stateMutability": "view",
      "type": "function"
    },
    {
      "inputs": [
        {
          "internalType": "address",
          "name": "user",
          "type": "address"
        }
      ],
      "name": "userOwnedCollectionNum",
      "outputs": [
        {
          "internalType": "uint256",
          "name": "",
          "type": "uint256"
        }
      ],
      "stateMutability": "view",
      "type": "function"
    },
    {
      "inputs": [
        {
          "internalType": "string",
          "name": "_name",
          "type": "string"
        },
        {
          "internalType": "string",
          "name": "_symbol",
          "type": "string"
        },
        {
          "internalType": "string",
          "name": "_baseURI",
          "type": "string"
        },
        {
          "internalType": "uint256",
          "name": "_max_supply",
          "type": "uint256"
        },
        {
          "internalType": "string",
          "name": "_metaInfo",
          "type": "string"
        },
        {
          "internalType": "address",
          "name": "royaltiesReceiver",
          "type": "address"
        },
        {
          "internalType": "uint256",
          "name": "royaltiesPercentageInBips",
          "type": "uint256"
        }
      ],
      "name": "createCollection",
      "outputs": [
        {
          "internalType": "address",
          "name": "",
          "type": "address"
        }
      ],
      "stateMutability": "nonpayable",
      "type": "function"
    },
    {
      "inputs": [
        {
          "internalType": "address",
          "name": "_collection",
          "type": "address"
        },
        {
          "internalType": "string",
          "name": "_metaInfo",
          "type": "string"
        }
      ],
      "name": "setCollectionMetaInfo",
      "outputs": [],
      "stateMutability": "nonpayable",
      "type": "function"
    },
    {
      "inputs": [
        {
          "internalType": "address",
          "name": "_collection",
          "type": "address"
        },
        {
          "internalType": "address",
          "name": "royaltiesReceiver",
          "type": "address"
        },
        {
          "internalType": "uint256",
          "name": "royaltiesPercentageInBips",
          "type": "uint256"
        }
      ],
      "name": "setCollectionRoyalty",
      "outputs": [],
      "stateMutability": "nonpayable",
      "type": "function"
    },
    {
      "inputs": [
        {
          "internalType": "address",
          "name": "_sale",
          "type": "address"
        }
      ],
      "name": "addMarketSale",
      "outputs": [],
      "stateMutability": "nonpayable",
      "type": "function"
    },
    {
      "inputs": [
        {
          "internalType": "address",
          "name": "collection",
          "type": "address"
        },
        {
          "internalType": "uint256",
          "name": "token_id",
          "type": "uint256"
        },
        {
          "internalType": "uint256",
          "name": "market",
          "type": "uint256"
        },
        {
          "internalType": "address",
          "name": "_token",
          "type": "address"
        },
        {
          "internalType": "uint256",
          "name": "_price",
          "type": "uint256"
        },
        {
          "internalType": "uint256",
          "name": "_duration",
          "type": "uint256"
        }
      ],
      "name": "sell",
      "outputs": [],
      "stateMutability": "nonpayable",
      "type": "function"
    },
    {
      "inputs": [
        {
          "internalType": "address",
          "name": "_feeCollector",
          "type": "address"
        },
        {
          "internalType": "uint256",
          "name": "_feeInBips",
          "type": "uint256"
        }
      ],
      "name": "setFeeConfig",
      "outputs": [],
      "stateMutability": "nonpayable",
      "type": "function"
    },
    {
      "inputs": [
        {
          "internalType": "address",
          "name": "_token",
          "type": "address"
        },
        {
          "internalType": "bool",
          "name": "_status",
          "type": "bool"
        }
      ],
      "name": "setTokenSupport",
      "outputs": [],
      "stateMutability": "nonpayable",
      "type": "function"
    },
    {
      "inputs": [
        {
          "internalType": "address",
          "name": "_collection",
          "type": "address"
        },
        {
          "internalType": "address",
          "name": "_recipient",
          "type": "address"
        },
        {
          "internalType": "string",
          "name": "_hash",
          "type": "string"
        }
      ],
      "name": "mint",
      "outputs": [
        {
          "internalType": "uint256",
          "name": "",
          "type": "uint256"
        }
      ],
      "stateMutability": "nonpayable",
      "type": "function"
    },
    {
      "inputs": [
        {
          "internalType": "address",
          "name": "_collection",
          "type": "address"
        },
        {
          "internalType": "string",
          "name": "_hash",
          "type": "string"
        },
        {
          "internalType": "uint256",
          "name": "market",
          "type": "uint256"
        },
        {
          "internalType": "address",
          "name": "_token",
          "type": "address"
        },
        {
          "internalType": "uint256",
          "name": "_price",
          "type": "uint256"
        },
        {
          "internalType": "uint256",
          "name": "_duration",
          "type": "uint256"
        }
      ],
      "name": "mintAndSell",
      "outputs": [],
      "stateMutability": "nonpayable",
      "type": "function"
    },
    {
      "inputs": [
        {
          "internalType": "address",
          "name": "_collection",
          "type": "address"
        },
        {
          "internalType": "uint256",
          "name": "_tokenId",
          "type": "uint256"
        },
        {
          "internalType": "address",
          "name": "_recipient",
          "type": "address"
        }
      ],
      "name": "transfer",
      "outputs": [],
      "stateMutability": "nonpayable",
      "type": "function"
    }
  ],
  "bytecode": "0x608060405234801561001057600080fd5b5061001a3361006b565b600b80546001600160a01b0319163317905560fa600c5560008052600d6020527f81955a0a11e65eac625c29e8882660bae4e165a75d72780094acae8ece9a29ee805460ff191660011790556100bb565b600080546001600160a01b038381166001600160a01b0319831681178455604051919092169283917f8be0079c531659141344cd1fd0a4f28419497f9722a3daafe3b4186f6b6457e09190a35050565b6151a780620000cb6000396000f3fe60806040523480156200001157600080fd5b5060043610620002445760003560e01c8063807421f11162000141578063d7bb552211620000bd578063e70619501162000087578063e706195014620004f2578063e782fae71462000518578063f2fde38b146200052f578063fa4c21fe1462000546578063ffff0d11146200055d5762000244565b8063d7bb552214620004a3578063dbba0f0114620004ba578063dd8027db14620004d1578063e07a311114620004db5762000244565b8063b22eb9ba116200010b578063b22eb9ba146200043d578063b78fd5b31462000454578063c415b95c146200046b578063c543e0fe1462000475578063cdfde4e4146200048c5762000244565b8063807421f114620003ee5780638365125514620004055780638da5cb5b146200041c578063a249920114620004265762000244565b80632c32b2d611620001d157806352374f6f116200019b57806352374f6f146200037957806363a24e22146200039057806365e84a2014620003a7578063712811be14620003be578063715018a614620003e45762000244565b80632c32b2d6146200031d5780632feeab36146200033457806341084242146200034b57806346eb67ef14620003625762000244565b80631a92777911620002135780631a92777914620002c1578063221375a614620002d857806328044ef914620002ef5780632b171c7114620003065762000244565b806308d3fed314620002495780630c6a753f14620002625780630e716d97146200027957806315412a96146200029b575b600080fd5b620002606200025a366004620025d8565b62000583565b005b620002606200027336600462002210565b620005f3565b620002836200065b565b604051620002929190620029e2565b60405180910390f35b620002b2620002ac36600462002397565b62000661565b604051620002929190620027d4565b620002b2620002d236600462002660565b620007e9565b62000283620002e936600462002164565b62000942565b620002836200030036600462002126565b62000a0e565b620002836200031736600462002126565b62000a2d565b620002b26200032e36600462002397565b62000a48565b6200026062000345366004620025d8565b62000b18565b620002606200035c366004620025d8565b62000b59565b6200026062000373366004620025ff565b62000bc2565b620002836200038a36600462002126565b62000d7a565b62000260620003a1366004620022a0565b62000da3565b62000260620003b8366004620021cb565b62000dcd565b620003d5620003cf36600462002323565b62000efd565b6040516200029291906200273c565b6200026062000f36565b620003d5620003ff366004620025a6565b62000f78565b620002b26200041636600462002397565b62000fa3565b620003d562001187565b62000260620004373660046200224d565b62001196565b620002606200044e36600462002126565b62001238565b620002b26200046536600462002397565b620012c8565b620003d562001446565b620003d56200048636600462002126565b62001455565b620002606200049d366004620025d8565b62001470565b62000260620004b4366004620023ce565b620014b1565b62000260620004cb36600462002351565b62001746565b6200028362001810565b62000260620004ec36600462002323565b62001823565b620005096200050336600462002126565b6200187d565b60405162000292919062002826565b620002836200052936600462002126565b62001892565b620002606200054036600462002126565b620018b5565b620003d562000557366004620024cc565b6200191d565b620005746200056e36600462002414565b62001b58565b604051620002929190620029d2565b3360009081526007602052604090205460ff16620005a057600080fd5b620005ad60018362001b7d565b50600082815260036020908152604080832080546001600160a01b031916331790556001600160a01b038416835260069091529020620005ee908362001b7d565b505050565b33620005fe62001187565b6001600160a01b031614620006305760405162461bcd60e51b815260040162000627906200297a565b60405180910390fd5b6001600160a01b03919091166000908152600d60205260409020805460ff1916911515919091179055565b600c5481565b6060826001600160401b038111156200068a57634e487b7160e01b600052604160045260246000fd5b604051908082528060200260200182016040528015620006c757816020015b620006b362002041565b815260200190600190039081620006a95790505b50905060006001815b8481108015620006dd5750815b8015620006f357506000831180620006f3575080155b1562000736576001600160a01b03871660009081526006602052604090206200071d908462001b94565b93509150806200072d8162002a20565b915050620006d0565b5060005b8581108015620007475750815b80156200075d575060008311806200075d575080155b15620007df576001600160a01b038716600090815260066020526040902062000787908462001b94565b935091508115620007ca576200079d8362001bb0565b848281518110620007be57634e487b7160e01b600052603260045260246000fd5b60200260200101819052505b80620007d68162002a20565b9150506200073a565b5050509392505050565b6060826001600160401b038111156200081257634e487b7160e01b600052604160045260246000fd5b6040519080825280602002602001820160405280156200084f57816020015b6200083b62002041565b815260200190600190039081620008315790505b50905060006001815b8481108015620008655750815b80156200087b575060008311806200087b575080155b15620008a7576200088e60018462001b94565b93509150806200089e8162002a20565b91505062000858565b5060005b8581108015620008b85750815b8015620008ce57506000831180620008ce575080155b156200093957620008e160018462001b94565b9350915081156200092457620008f78362001bb0565b8482815181106200091857634e487b7160e01b600052603260045260246000fd5b60200260200101819052505b80620009308162002a20565b915050620008ab565b50505092915050565b6001600160a01b038381166000908152600860205260408120549091163314620009805760405162461bcd60e51b81526004016200062790620029af565b60405163d0def52160e01b81526001600160a01b0385169063d0def52190620009b0908690869060040162002774565b602060405180830381600087803b158015620009cb57600080fd5b505af1158015620009e0573d6000803e3d6000fd5b505050506040513d601f19601f8201168201806040525081019062000a069190620025bf565b949350505050565b6001600160a01b0381166000908152600960205260409020545b919050565b6001600160a01b031660009081526005602052604090205490565b6060826001600160401b0381111562000a7157634e487b7160e01b600052604160045260246000fd5b60405190808252806020026020018201604052801562000aae57816020015b62000a9a62002041565b81526020019060019003908162000a905790505b50905060005b8381101562000b105762000ace856200056e8686620029eb565b82828151811062000aef57634e487b7160e01b600052603260045260246000fd5b6020026020010181905250808062000b079062002a20565b91505062000ab4565b509392505050565b3360009081526007602052604090205460ff1662000b3557600080fd5b6001600160a01b0381166000908152600460205260409020620005ee908362001b7d565b3360009081526007602052604090205460ff1662000b7657600080fd5b600082815260036020908152604080832080546001600160a01b03191690556001600160a01b03841683526006909152902062000bb4908362001d2e565b50620005ee60018362001d2e565b3360009081526007602052604090205460ff1662000bdf57600080fd5b60008062000bed8762001dd1565b600089815260036020908152604080832080546001600160a01b03191690556001600160a01b038b16835260069091529020919350915062000c30908862001d2e565b5062000c3e60018862001d2e565b506001600160a01b039485166000908152600560208181526040808420815160e081018352338152968a168784019081526001600160601b03968716928801928352988a16606088019081526001600160801b03988916608089019081526001600160401b0342811660a08b019081529d8d1660c08b01908152845460018181018755958a52969098209951959096029098018054948c166001600160a01b03199586161781559951918a0180549351909716600160a01b02918b16928416929092178a1617909455925160028701805491891691851691909117905592516003860180549851909416600160801b0267ffffffffffffffff60801b19919095166fffffffffffffffffffffffffffffffff19909816979097179690961692909217905592516004909101805491909216921691909117905550565b6001600160a01b038116600090815260046020526040812062000d9d9062001dd9565b92915050565b600062000db287338862000942565b905062000dc4878287878787620014b1565b50505050505050565b6001600160a01b0383811660009081526008602052604090205416331462000e095760405162461bcd60e51b81526004016200062790620029af565b612710600c548262000e1c9190620029eb565b111562000e3d5760405162461bcd60e51b81526004016200062790620028dd565b60405163b514371560e01b81526001600160a01b0384169063b51437159062000e6b9085906004016200273c565b600060405180830381600087803b15801562000e8657600080fd5b505af115801562000e9b573d6000803e3d6000fd5b5050604051637bc41acd60e11b81526001600160a01b038616925063f788359a915062000ecd908490600401620029e2565b600060405180830381600087803b15801562000ee857600080fd5b505af115801562000dc4573d6000803e3d6000fd5b6009602052816000526040600020818154811062000f1a57600080fd5b6000918252602090912001546001600160a01b03169150829050565b3362000f4162001187565b6001600160a01b03161462000f6a5760405162461bcd60e51b815260040162000627906200297a565b62000f76600062001ddd565b565b600a818154811062000f8957600080fd5b6000918252602090912001546001600160a01b0316905081565b6060826001600160401b0381111562000fcc57634e487b7160e01b600052604160045260246000fd5b6040519080825280602002602001820160405280156200100957816020015b62000ff562002041565b81526020019060019003908162000feb5790505b506001600160a01b0385166000908152600560205260409020549091508083111562001033578092505b80620010408585620029eb565b1115620010565762001053838262002a06565b93505b60005b848110156200117e576001600160a01b038616600090815260056020526040902062001086828462002a06565b81548110620010a557634e487b7160e01b600052603260045260246000fd5b60009182526020918290206040805160e08101825260059390930290910180546001600160a01b039081168452600182015480821695850195909552600160a01b9094046001600160601b03169183019190915260028101548316606083015260038101546001600160801b0381166080840152600160801b90046001600160401b031660a08301526004015490911660c082015283518490839081106200115d57634e487b7160e01b600052603260045260246000fd5b60200260200101819052508080620011759062002a20565b91505062001059565b50509392505050565b6000546001600160a01b031690565b6001600160a01b03828116600090815260086020526040902054163314620011d25760405162461bcd60e51b81526004016200062790620029af565b6040516374d670ef60e01b81526001600160a01b038316906374d670ef906200120090849060040162002831565b600060405180830381600087803b1580156200121b57600080fd5b505af115801562001230573d6000803e3d6000fd5b505050505050565b336200124362001187565b6001600160a01b0316146200126c5760405162461bcd60e51b815260040162000627906200297a565b600a8054600180820183556000929092527fc65a7bb8d6351c1cf70c95a316cc6a92839c986682d98bc35f958f4883f9d2a80180546001600160a01b0319166001600160a01b038416179055620012c590829062001e2d565b50565b6060826001600160401b03811115620012f157634e487b7160e01b600052604160045260246000fd5b6040519080825280602002602001820160405280156200132e57816020015b6200131a62002041565b815260200190600190039081620013105790505b50905060006001815b8481108015620013445750815b80156200135a575060008311806200135a575080155b156200139d576001600160a01b038716600090815260046020526040902062001384908462001b94565b9350915080620013948162002a20565b91505062001337565b5060005b8581108015620013ae5750815b8015620013c457506000831180620013c4575080155b15620007df576001600160a01b0387166000908152600460205260409020620013ee908462001b94565b9350915081156200143157620014048362001bb0565b8482815181106200142557634e487b7160e01b600052603260045260246000fd5b60200260200101819052505b806200143d8162002a20565b915050620013a1565b600b546001600160a01b031681565b6008602052600090815260409020546001600160a01b031681565b3360009081526007602052604090205460ff166200148d57600080fd5b6001600160a01b0381166000908152600460205260409020620005ee908362001d2e565b600a548410620014d55760405162461bcd60e51b815260040162000627906200292c565b6040516331a9108f60e11b815233906001600160a01b03881690636352211e9062001505908990600401620029e2565b60206040518083038186803b1580156200151e57600080fd5b505afa15801562001533573d6000803e3d6000fd5b505050506040513d601f19601f8201168201806040525081019062001559919062002145565b6001600160a01b031614620015825760405162461bcd60e51b81526004016200062790620029af565b6001600160a01b0383166000908152600d602052604090205460ff16620015bd5760405162461bcd60e51b8152600401620006279062002907565b816001600160801b03168214620015e85760405162461bcd60e51b8152600401620006279062002952565b856001600160a01b031663086b244433600a87815481106200161a57634e487b7160e01b600052603260045260246000fd5b6000918252602090912001546040516001600160e01b031960e085901b1681526200165592916001600160a01b0316908a9060040162002750565b600060405180830381600087803b1580156200167057600080fd5b505af115801562001685573d6000803e3d6000fd5b50505050600a8481548110620016ab57634e487b7160e01b600052603260045260246000fd5b60009182526020909120015460405163370b008160e01b81526001600160a01b039091169063370b008190620016f0908990899033908990899089906004016200279a565b602060405180830381600087803b1580156200170b57600080fd5b505af115801562001720573d6000803e3d6000fd5b505050506040513d601f19601f8201168201806040525081019062000dc49190620025bf565b6040516331a9108f60e11b815233906001600160a01b03851690636352211e9062001776908690600401620029e2565b60206040518083038186803b1580156200178f57600080fd5b505afa158015620017a4573d6000803e3d6000fd5b505050506040513d601f19601f82011682018060405250810190620017ca919062002145565b6001600160a01b031614620017de57600080fd5b60405163021ac91160e21b81526001600160a01b0384169063086b24449062000ecd9033908590879060040162002750565b60006200181e600162001dd9565b905090565b336200182e62001187565b6001600160a01b031614620018575760405162461bcd60e51b815260040162000627906200297a565b600b80546001600160a01b0319166001600160a01b039390931692909217909155600c55565b600d6020526000908152604090205460ff1681565b6001600160a01b038116600090815260066020526040812062000d9d9062001dd9565b33620018c062001187565b6001600160a01b031614620018e95760405162461bcd60e51b815260040162000627906200297a565b6001600160a01b038116620019125760405162461bcd60e51b8152600401620006279062002897565b620012c58162001ddd565b6000612710600c5483620019329190620029eb565b1115620019535760405162461bcd60e51b81526004016200062790620028dd565b60008888888860405162001967906200207d565b62001976949392919062002846565b604051809103906000f08015801562001993573d6000803e3d6000fd5b506040516374d670ef60e01b81529091506001600160a01b038216906374d670ef90620019c590889060040162002831565b600060405180830381600087803b158015620019e057600080fd5b505af1158015620019f5573d6000803e3d6000fd5b5050604051637bc41acd60e11b81526001600160a01b038416925063f788359a915062001a27908690600401620029e2565b600060405180830381600087803b15801562001a4257600080fd5b505af115801562001a57573d6000803e3d6000fd5b505060405163b514371560e01b81526001600160a01b038416925063b5143715915062001a899087906004016200273c565b600060405180830381600087803b15801562001aa457600080fd5b505af115801562001ab9573d6000803e3d6000fd5b505050506001600160a01b03811660008181526008602090815260408083208054336001600160a01b0319918216811790925581855260098452828520805460018101825590865293909420909201805490931690931790915590517f5b84d9550adb7000df7bee717735ecd3af48ea3f66c6886d52e8227548fb228c9062001b449084906200273c565b60405180910390a298975050505050505050565b62001b6262002041565b600062001b70848462001e58565b905062000a068162001bb0565b600062001b8d8383600162001e90565b9392505050565b60008062001ba58484600162001ea1565b915091509250929050565b62001bba62002041565b6000828152600360205260409020546001600160a01b03168062001c195750506040805160e081018252600080825260208201819052918101829052606081018290526080810182905260a0810182905260c081019190915262000a28565b6000806000806000856001600160a01b03166364b3b844896040518263ffffffff1660e01b815260040162001c4f9190620029e2565b60c06040518083038186803b15801562001c6857600080fd5b505afa15801562001c7d573d6000803e3d6000fd5b505050506040513d601f19601f8201168201806040525081019062001ca3919062002450565b50945094509450945094508462001cb957600095505b60008062001cc78a62001dd1565b6040805160e0810182526001600160a01b039b8c168152928b1660208401526001600160601b039190911690820152958816606087015250506001600160801b0390921660808401526001600160401b031660a083015290921660c0830152509050919050565b600081158062001d47575062001d45838362001eec565b155b1562001d565750600062000d9d565b60008281526001848101602090815260408084208480529091528083205482845292205462001d8a92869290919062001f76565b6000828152600184810160209081526040808420848052909152808320839055818352822082905584549091859162001dc590849062002a06565b90915550919392505050565b606081901c91565b5490565b600080546001600160a01b038381166001600160a01b0319831681178455604051919092169283917f8be0079c531659141344cd1fd0a4f28419497f9722a3daafe3b4186f6b6457e09190a35050565b6001600160a01b03919091166000908152600760205260409020805460ff1916911515919091179055565b600062001e796bffffffffffffffffffffffff19606085901b1682620029eb565b905062001b8d6001600160601b03831682620029eb565b600062000a06846000858562001fab565b60008062001eb0858562001eec565b62001ec15750600090508062001ee4565b505060008281526001848101602090815260408084208515158552909152909120545b935093915050565b6000818152600183016020908152604080832083805290915281205415801562001f3057506000828152600180850160209081526040808420928452919052902054155b1562001f6d57600080805260018085016020908152604080842092845291905290205482141562001f645750600162000d9d565b50600062000d9d565b50600162000d9d565b600082815260019094016020818152604080872093158088529382528087208690559486529081528385209115855252912055565b600062001fb9858462001eec565b15801562001fce575062001fce858562001eec565b156200203657600084815260018601602090815260408083208515158452909152902054620020008686868662001f76565b6200200e8685838662001f76565b6001866000016000828254620020259190620029eb565b909155506001925062000a06915050565b506000949350505050565b6040805160e081018252600080825260208201819052918101829052606081018290526080810182905260a0810182905260c081019190915290565b6126e28062002a9083390190565b803562000a288162002a6a565b600082601f830112620020a9578081fd5b81356001600160401b0380821115620020c657620020c662002a54565b604051601f8301601f19908116603f01168101908282118183101715620020f157620020f162002a54565b816040528381528660208588010111156200210a578485fd5b8360208701602083013792830160200193909352509392505050565b60006020828403121562002138578081fd5b813562001b8d8162002a6a565b60006020828403121562002157578081fd5b815162001b8d8162002a6a565b60008060006060848603121562002179578182fd5b8335620021868162002a6a565b92506020840135620021988162002a6a565b915060408401356001600160401b03811115620021b3578182fd5b620021c18682870162002098565b9150509250925092565b600080600060608486031215620021e0578283fd5b8335620021ed8162002a6a565b92506020840135620021ff8162002a6a565b929592945050506040919091013590565b6000806040838503121562002223578182fd5b8235620022308162002a6a565b91506020830135620022428162002a80565b809150509250929050565b6000806040838503121562002260578182fd5b82356200226d8162002a6a565b915060208301356001600160401b0381111562002288578182fd5b620022968582860162002098565b9150509250929050565b60008060008060008060c08789031215620022b9578182fd5b8635620022c68162002a6a565b955060208701356001600160401b03811115620022e1578283fd5b620022ef89828a0162002098565b955050604087013593506060870135620023098162002a6a565b9598949750929560808101359460a0909101359350915050565b6000806040838503121562002336578182fd5b8235620023438162002a6a565b946020939093013593505050565b60008060006060848603121562002366578283fd5b8335620023738162002a6a565b92506020840135915060408401356200238c8162002a6a565b809150509250925092565b600080600060608486031215620023ac578283fd5b8335620023b98162002a6a565b95602085013595506040909401359392505050565b60008060008060008060c08789031215620023e7578182fd5b8635620023f48162002a6a565b955060208701359450604087013593506060870135620023098162002a6a565b6000806040838503121562002427578182fd5b8235620024348162002a6a565b915060208301356001600160601b038116811462002242578182fd5b60008060008060008060c0878903121562002469578384fd5b8651620024768162002a80565b6020880151909650620024898162002a6a565b8095505060408701519350606087015192506080870151620024ab8162002a6a565b60a0880151909250620024be8162002a6a565b809150509295509295509295565b600080600080600080600060e0888a031215620024e7578485fd5b87356001600160401b0380821115620024fe578687fd5b6200250c8b838c0162002098565b985060208a013591508082111562002522578687fd5b620025308b838c0162002098565b975060408a013591508082111562002546578687fd5b620025548b838c0162002098565b965060608a0135955060808a013591508082111562002571578283fd5b50620025808a828b0162002098565b9350506200259160a089016200208b565b915060c0880135905092959891949750929550565b600060208284031215620025b8578081fd5b5035919050565b600060208284031215620025d1578081fd5b5051919050565b60008060408385031215620025eb578182fd5b823591506020830135620022428162002a6a565b600080600080600060a0868803121562002617578283fd5b8535945060208601356200262b8162002a6a565b935060408601356200263d8162002a6a565b925060608601356200264f8162002a6a565b949793965091946080013592915050565b6000806040838503121562002673578182fd5b50508035926020909101359150565b60008151808452815b81811015620026a9576020818501810151868301820152016200268b565b81811115620026bb5782602083870101525b50601f01601f19169290920160200192915050565b80516001600160a01b0390811683526020808301518216908401526040808301516001600160601b0316908401526060808301518216908401526080808301516001600160801b03169084015260a0828101516001600160401b03169084015260c09182015116910152565b6001600160a01b0391909116815260200190565b6001600160a01b039384168152919092166020820152604081019190915260600190565b6001600160a01b038316815260406020820181905260009062000a069083018462002682565b6001600160a01b0396871681526020810195909552928516604085015293166060830152608082019290925260a081019190915260c00190565b6020808252825182820181905260009190848201906040850190845b818110156200281a5762002806838551620026d0565b9284019260e09290920191600101620027f0565b50909695505050505050565b901515815260200190565b60006020825262001b8d602083018462002682565b6000608082526200285b608083018762002682565b82810360208401526200286f818762002682565b9050828103604084015262002885818662002682565b91505082606083015295945050505050565b60208082526026908201527f4f776e61626c653a206e6577206f776e657220697320746865207a65726f206160408201526564647265737360d01b606082015260800190565b60208082526010908201526f526f79616c7479206f766572666c6f7760801b604082015260600190565b6020808252600b908201526a2bb937b733903a37b5b2b760a91b604082015260600190565b6020808252600c908201526b15dc9bdb99c81b585c9ad95d60a21b604082015260600190565b6020808252600e908201526d5072696365206f766572666c6f7760901b604082015260600190565b6020808252818101527f4f776e61626c653a2063616c6c6572206973206e6f7420746865206f776e6572604082015260600190565b6020808252600990820152682737ba1037bbb732b960b91b604082015260600190565b60e0810162000d9d8284620026d0565b90815260200190565b6000821982111562002a015762002a0162002a3e565b500190565b60008282101562002a1b5762002a1b62002a3e565b500390565b600060001982141562002a375762002a3762002a3e565b5060010190565b634e487b7160e01b600052601160045260246000fd5b634e487b7160e01b600052604160045260246000fd5b6001600160a01b0381168114620012c557600080fd5b8015158114620012c557600080fdfe60806040523480156200001157600080fd5b50604051620026e2380380620026e2833981016040819052620000349162000271565b83836200004133620000c8565b81516200005690600190602085019062000118565b5080516200006c90600290602084019062000118565b50508251620000849150601090602085019062000118565b50600d8190556001600160601b0381168114620000be5760405162461bcd60e51b8152600401620000b59062000306565b60405180910390fd5b5050505062000390565b600080546001600160a01b038381166001600160a01b0319831681178455604051919092169283917f8be0079c531659141344cd1fd0a4f28419497f9722a3daafe3b4186f6b6457e09190a35050565b82805462000126906200033d565b90600052602060002090601f0160209004810192826200014a576000855562000195565b82601f106200016557805160ff191683800117855562000195565b8280016001018555821562000195579182015b828111156200019557825182559160200191906001019062000178565b50620001a3929150620001a7565b5090565b5b80821115620001a35760008155600101620001a8565b600082601f830112620001cf578081fd5b81516001600160401b0380821115620001ec57620001ec6200037a565b604051601f8301601f19908116603f011681019082821181831017156200021757620002176200037a565b8160405283815260209250868385880101111562000233578485fd5b8491505b8382101562000256578582018301518183018401529082019062000237565b838211156200026757848385830101525b9695505050505050565b6000806000806080858703121562000287578384fd5b84516001600160401b03808211156200029e578586fd5b620002ac88838901620001be565b95506020870151915080821115620002c2578485fd5b620002d088838901620001be565b94506040870151915080821115620002e6578384fd5b50620002f587828801620001be565b606096909601519497939650505050565b6020808252601b908201527f546f6f206d616e7920737570706c6965733a206f766572666c6f770000000000604082015260600190565b6002810460018216806200035257607f821691505b602082108114156200037457634e487b7160e01b600052602260045260246000fd5b50919050565b634e487b7160e01b600052604160045260246000fd5b61234280620003a06000396000f3fe608060405234801561001057600080fd5b50600436106101cf5760003560e01c806370a0823111610104578063b5143715116100a2578063d0def52111610071578063d0def52114610399578063e985e9c5146103ac578063f2fde38b146103bf578063f788359a146103d2576101cf565b8063b514371514610358578063b70aeaf41461036b578063b88d4fde14610373578063c87b56dd14610386576101cf565b80638da5cb5b116100de5780638da5cb5b1461032d57806395d89b4114610335578063a22cb4651461033d578063a3a51bd514610350576101cf565b806370a08231146102ff578063715018a61461031257806374d670ef1461031a576101cf565b806323b872dd1161017157806332cb6b0c1161014b57806332cb6b0c146102be57806342842e0e146102c65780634f6ccce7146102d95780636352211e146102ec576101cf565b806323b872dd146102775780632a55205a1461028a5780632f745c59146102ab576101cf565b8063086b2444116101ad578063086b244414610232578063095ea7b31461024757806318160ddd1461025a5780632175c9901461026f576101cf565b806301ffc9a7146101d457806306fdde03146101fd578063081812fc14610212575b600080fd5b6101e76101e2366004611a36565b6103e5565b6040516101f49190611bbb565b60405180910390f35b610205610412565b6040516101f49190611bc6565b610225610220366004611aa1565b6104a4565b6040516101f49190611b51565b6102456102403660046118d3565b6104f0565b005b610245610255366004611a0d565b61052f565b6102626105c2565b6040516101f4919061219c565b6102626105c8565b6102456102853660046118d3565b6105ce565b61029d610298366004611ab9565b6105fb565b6040516101f4929190611ba2565b6102626102b9366004611a0d565b610632565b610262610684565b6102456102d43660046118d3565b61068a565b6102626102e7366004611aa1565b6106a5565b6102256102fa366004611aa1565b610700565b61026261030d366004611887565b610735565b610245610779565b610245610328366004611a6e565b6107b4565b6102256107fa565b610205610809565b61024561034b366004611987565b610818565b61022561082a565b610245610366366004611887565b610839565b61020561088a565b61024561038136600461190e565b610918565b610205610394366004611aa1565b610957565b6102626103a73660046119c1565b610962565b6101e76103ba3660046118a1565b610a9a565b6102456103cd366004611887565b610ac8565b6102456103e0366004611aa1565b610b29565b600063152a902d60e11b6001600160e01b03198316148061040a575061040a82610b5d565b90505b919050565b6060600180546104219061224a565b80601f016020809104026020016040519081016040528092919081815260200182805461044d9061224a565b801561049a5780601f1061046f5761010080835404028352916020019161049a565b820191906000526020600020905b81548152906001019060200180831161047d57829003601f168201915b5050505050905090565b60006104af82610b82565b6104d45760405162461bcd60e51b81526004016104cb90611fee565b60405180910390fd5b506000908152600560205260409020546001600160a01b031690565b336104f96107fa565b6001600160a01b03161461051f5760405162461bcd60e51b81526004016104cb9061203a565b61052a838383610b9f565b505050565b600061053a82610700565b9050806001600160a01b0316836001600160a01b0316141561056e5760405162461bcd60e51b81526004016104cb906120be565b806001600160a01b0316610580610cd2565b6001600160a01b0316148061059c575061059c816103ba610cd2565b6105b85760405162461bcd60e51b81526004016104cb90611e2a565b61052a8383610cd6565b60095490565b600f5481565b6105df6105d9610cd2565b82610d44565b61051f5760405162461bcd60e51b81526004016104cb906120ff565b6000806000612710600f548561061191906121e8565b61061b91906121d4565b600e546001600160a01b0316969095509350505050565b600061063d83610735565b821061065b5760405162461bcd60e51b81526004016104cb90611bd9565b506001600160a01b03919091166000908152600760209081526040808320938352929052205490565b600d5481565b61052a83838360405180602001604052806000815250610918565b60006106af6105c2565b82106106cd5760405162461bcd60e51b81526004016104cb90612150565b600982815481106106ee57634e487b7160e01b600052603260045260246000fd5b90600052602060002001549050919050565b6000818152600360205260408120546001600160a01b03168061040a5760405162461bcd60e51b81526004016104cb90611ed1565b60006001600160a01b03821661075d5760405162461bcd60e51b81526004016104cb90611e87565b506001600160a01b031660009081526004602052604090205490565b336107826107fa565b6001600160a01b0316146107a85760405162461bcd60e51b81526004016104cb9061203a565b6107b26000610dc9565b565b336107bd6107fa565b6001600160a01b0316146107e35760405162461bcd60e51b81526004016104cb9061203a565b80516107f6906011906020840190611742565b5050565b6000546001600160a01b031690565b6060600280546104219061224a565b6107f6610823610cd2565b8383610e19565b600e546001600160a01b031681565b336108426107fa565b6001600160a01b0316146108685760405162461bcd60e51b81526004016104cb9061203a565b600e80546001600160a01b0319166001600160a01b0392909216919091179055565b601180546108979061224a565b80601f01602080910402602001604051908101604052809291908181526020018280546108c39061224a565b80156109105780601f106108e557610100808354040283529160200191610910565b820191906000526020600020905b8154815290600101906020018083116108f357829003601f168201915b505050505081565b610929610923610cd2565b83610d44565b6109455760405162461bcd60e51b81526004016104cb906120ff565b61095184848484610ebc565b50505050565b606061040a82610eef565b60003361096d6107fa565b6001600160a01b0316146109935760405162461bcd60e51b81526004016104cb9061203a565b600d5461099e6105c2565b11156109bc5760405162461bcd60e51b81526004016104cb90611d01565b60008251116109ca57600080fd5b600c826040516109da9190611b06565b9081526040519081900360200190205460ff16600114156109fa57600080fd5b6001600c83604051610a0c9190611b06565b908152604051908190036020019020805460ff9290921660ff199092169190911790556000610a396105c2565b610a449060016121bc565b9050610a508482611008565b610a5a8184611022565b7ff3cea5493d790af0133817606f7350a91d7f154ea52eaa79d179d4d231e501028185604051610a8b9291906121a5565b60405180910390a19392505050565b6001600160a01b03918216600090815260066020908152604080832093909416825291909152205460ff1690565b33610ad16107fa565b6001600160a01b031614610af75760405162461bcd60e51b81526004016104cb9061203a565b6001600160a01b038116610b1d5760405162461bcd60e51b81526004016104cb90611c76565b610b2681610dc9565b50565b33610b326107fa565b6001600160a01b031614610b585760405162461bcd60e51b81526004016104cb9061203a565b600f55565b60006001600160e01b0319821663780e9d6360e01b148061040a575061040a82611066565b6000908152600360205260409020546001600160a01b0316151590565b826001600160a01b0316610bb282610700565b6001600160a01b031614610bd85760405162461bcd60e51b81526004016104cb90611cbc565b6001600160a01b038216610bfe5760405162461bcd60e51b81526004016104cb90611d63565b610c098383836110a6565b610c14600082610cd6565b6001600160a01b0383166000908152600460205260408120805460019290610c3d908490612207565b90915550506001600160a01b0382166000908152600460205260408120805460019290610c6b9084906121bc565b909155505060008181526003602052604080822080546001600160a01b0319166001600160a01b0386811691821790925591518493918716917fddf252ad1be2c89b69c2b068fc378daa952ba7f163c4a11628f55a4df523b3ef91a461052a83838361052a565b3390565b600081815260056020526040902080546001600160a01b0319166001600160a01b0384169081179091558190610d0b82610700565b6001600160a01b03167f8c5be1e5ebec7d5bd14f71427d1e84f3dd0314c0f7b2291e5b200ac8c7c3b92560405160405180910390a45050565b6000610d4f82610b82565b610d6b5760405162461bcd60e51b81526004016104cb90611dde565b6000610d7683610700565b9050806001600160a01b0316846001600160a01b03161480610d9d5750610d9d8185610a9a565b80610dc15750836001600160a01b0316610db6846104a4565b6001600160a01b0316145b949350505050565b600080546001600160a01b038381166001600160a01b0319831681178455604051919092169283917f8be0079c531659141344cd1fd0a4f28419497f9722a3daafe3b4186f6b6457e09190a35050565b816001600160a01b0316836001600160a01b03161415610e4b5760405162461bcd60e51b81526004016104cb90611da7565b6001600160a01b0383811660008181526006602090815260408083209487168084529490915290819020805460ff1916851515179055517f17307eab39ab6107e8899845ad3d59bd9653f200f220920489ca2b5937696c3190610eaf908590611bbb565b60405180910390a3505050565b610ec7848484610b9f565b610ed3848484846110b1565b6109515760405162461bcd60e51b81526004016104cb90611c24565b6060610efa82610b82565b610f165760405162461bcd60e51b81526004016104cb90611f9d565b6000828152600b602052604081208054610f2f9061224a565b80601f0160208091040260200160405190810160405280929190818152602001828054610f5b9061224a565b8015610fa85780601f10610f7d57610100808354040283529160200191610fa8565b820191906000526020600020905b815481529060010190602001808311610f8b57829003601f168201915b505050505090506000610fb96111cc565b9050805160001415610fcd5750905061040d565b815115610fff578082604051602001610fe7929190611b22565b6040516020818303038152906040529250505061040d565b610dc1846111db565b6107f682826040518060200160405280600081525061125e565b61102b82610b82565b6110475760405162461bcd60e51b81526004016104cb90611f1a565b6000828152600b60209081526040909120825161052a92840190611742565b60006001600160e01b031982166380ac58cd60e01b148061109757506001600160e01b03198216635b5e139f60e01b145b8061040a575061040a82611291565b61052a8383836112aa565b60006110c5846001600160a01b0316611333565b156111c157836001600160a01b031663150b7a026110e1610cd2565b8786866040518563ffffffff1660e01b81526004016111039493929190611b65565b602060405180830381600087803b15801561111d57600080fd5b505af192505050801561114d575060408051601f3d908101601f1916820190925261114a91810190611a52565b60015b6111a7573d80801561117b576040519150601f19603f3d011682016040523d82523d6000602084013e611180565b606091505b50805161119f5760405162461bcd60e51b81526004016104cb90611c24565b805181602001fd5b6001600160e01b031916630a85bd0160e11b149050610dc1565b506001949350505050565b6060601080546104219061224a565b60606111e682610b82565b6112025760405162461bcd60e51b81526004016104cb9061206f565b600061120c6111cc565b9050600081511161122c5760405180602001604052806000815250611257565b8061123684611342565b604051602001611247929190611b22565b6040516020818303038152906040525b9392505050565b611268838361145d565b61127560008484846110b1565b61052a5760405162461bcd60e51b81526004016104cb90611c24565b6001600160e01b031981166301ffc9a760e01b14919050565b6112b583838361052a565b6001600160a01b0383166112d1576112cc81611544565b6112f4565b816001600160a01b0316836001600160a01b0316146112f4576112f48382611588565b6001600160a01b0382166113105761130b81611625565b61052a565b826001600160a01b0316826001600160a01b03161461052a5761052a82826116fe565b6001600160a01b03163b151590565b60608161136757506040805180820190915260018152600360fc1b602082015261040d565b8160005b8115611391578061137b81612285565b915061138a9050600a836121d4565b915061136b565b60008167ffffffffffffffff8111156113ba57634e487b7160e01b600052604160045260246000fd5b6040519080825280601f01601f1916602001820160405280156113e4576020820181803683370190505b5090505b8415610dc1576113f9600183612207565b9150611406600a866122a0565b6114119060306121bc565b60f81b81838151811061143457634e487b7160e01b600052603260045260246000fd5b60200101906001600160f81b031916908160001a905350611456600a866121d4565b94506113e8565b6001600160a01b0382166114835760405162461bcd60e51b81526004016104cb90611f68565b61148c81610b82565b156114a95760405162461bcd60e51b81526004016104cb90611d2c565b6114b5600083836110a6565b6001600160a01b03821660009081526004602052604081208054600192906114de9084906121bc565b909155505060008181526003602052604080822080546001600160a01b0319166001600160a01b03861690811790915590518392907fddf252ad1be2c89b69c2b068fc378daa952ba7f163c4a11628f55a4df523b3ef908290a46107f66000838361052a565b600980546000838152600a60205260408120829055600182018355919091527f6e1540171b6c0c960b71a7020d9f60077f6af931a8bbf590da0223dacf75c7af0155565b6000600161159584610735565b61159f9190612207565b6000838152600860205260409020549091508082146115f2576001600160a01b03841660009081526007602090815260408083208584528252808320548484528184208190558352600890915290208190555b5060009182526008602090815260408084208490556001600160a01b039094168352600781528383209183525290812055565b60095460009061163790600190612207565b6000838152600a60205260408120546009805493945090928490811061166d57634e487b7160e01b600052603260045260246000fd5b90600052602060002001549050806009838154811061169c57634e487b7160e01b600052603260045260246000fd5b6000918252602080832090910192909255828152600a909152604080822084905585825281205560098054806116e257634e487b7160e01b600052603160045260246000fd5b6001900381819060005260206000200160009055905550505050565b600061170983610735565b6001600160a01b039093166000908152600760209081526040808320868452825280832085905593825260089052919091209190915550565b82805461174e9061224a565b90600052602060002090601f01602090048101928261177057600085556117b6565b82601f1061178957805160ff19168380011785556117b6565b828001600101855582156117b6579182015b828111156117b657825182559160200191906001019061179b565b506117c29291506117c6565b5090565b5b808211156117c257600081556001016117c7565b600067ffffffffffffffff808411156117f6576117f66122e0565b604051601f8501601f19908116603f0116810190828211818310171561181e5761181e6122e0565b8160405280935085815286868601111561183757600080fd5b858560208301376000602087830101525050509392505050565b80356001600160a01b038116811461040d57600080fd5b600082601f830112611878578081fd5b611257838335602085016117db565b600060208284031215611898578081fd5b61125782611851565b600080604083850312156118b3578081fd5b6118bc83611851565b91506118ca60208401611851565b90509250929050565b6000806000606084860312156118e7578081fd5b6118f084611851565b92506118fe60208501611851565b9150604084013590509250925092565b60008060008060808587031215611923578081fd5b61192c85611851565b935061193a60208601611851565b925060408501359150606085013567ffffffffffffffff81111561195c578182fd5b8501601f8101871361196c578182fd5b61197b878235602084016117db565b91505092959194509250565b60008060408385031215611999578182fd5b6119a283611851565b9150602083013580151581146119b6578182fd5b809150509250929050565b600080604083850312156119d3578182fd5b6119dc83611851565b9150602083013567ffffffffffffffff8111156119f7578182fd5b611a0385828601611868565b9150509250929050565b60008060408385031215611a1f578182fd5b611a2883611851565b946020939093013593505050565b600060208284031215611a47578081fd5b8135611257816122f6565b600060208284031215611a63578081fd5b8151611257816122f6565b600060208284031215611a7f578081fd5b813567ffffffffffffffff811115611a95578182fd5b610dc184828501611868565b600060208284031215611ab2578081fd5b5035919050565b60008060408385031215611acb578182fd5b50508035926020909101359150565b60008151808452611af281602086016020860161221e565b601f01601f19169290920160200192915050565b60008251611b1881846020870161221e565b9190910192915050565b60008351611b3481846020880161221e565b835190830190611b4881836020880161221e565b01949350505050565b6001600160a01b0391909116815260200190565b6001600160a01b0385811682528416602082015260408101839052608060608201819052600090611b9890830184611ada565b9695505050505050565b6001600160a01b03929092168252602082015260400190565b901515815260200190565b6000602082526112576020830184611ada565b6020808252602b908201527f455243373231456e756d657261626c653a206f776e657220696e646578206f7560408201526a74206f6620626f756e647360a81b606082015260800190565b60208082526032908201527f4552433732313a207472616e7366657220746f206e6f6e20455243373231526560408201527131b2b4bb32b91034b6b83632b6b2b73a32b960711b606082015260800190565b60208082526026908201527f4f776e61626c653a206e6577206f776e657220697320746865207a65726f206160408201526564647265737360d01b606082015260800190565b60208082526025908201527f4552433732313a207472616e736665722066726f6d20696e636f72726563742060408201526437bbb732b960d91b606082015260800190565b602080825260119082015270105b1b081d1bdad95b9cc81b5a5b9d1959607a1b604082015260600190565b6020808252601c908201527f4552433732313a20746f6b656e20616c7265616479206d696e74656400000000604082015260600190565b60208082526024908201527f4552433732313a207472616e7366657220746f20746865207a65726f206164646040820152637265737360e01b606082015260800190565b60208082526019908201527f4552433732313a20617070726f766520746f2063616c6c657200000000000000604082015260600190565b6020808252602c908201527f4552433732313a206f70657261746f7220717565727920666f72206e6f6e657860408201526b34b9ba32b73a103a37b5b2b760a11b606082015260800190565b60208082526038908201527f4552433732313a20617070726f76652063616c6c6572206973206e6f74206f7760408201527f6e6572206e6f7220617070726f76656420666f7220616c6c0000000000000000606082015260800190565b6020808252602a908201527f4552433732313a2062616c616e636520717565727920666f7220746865207a65604082015269726f206164647265737360b01b606082015260800190565b60208082526029908201527f4552433732313a206f776e657220717565727920666f72206e6f6e657869737460408201526832b73a103a37b5b2b760b91b606082015260800190565b6020808252602e908201527f45524337323155524953746f726167653a2055524920736574206f66206e6f6e60408201526d32bc34b9ba32b73a103a37b5b2b760911b606082015260800190565b6020808252818101527f4552433732313a206d696e7420746f20746865207a65726f2061646472657373604082015260600190565b60208082526031908201527f45524337323155524953746f726167653a2055524920717565727920666f72206040820152703737b732bc34b9ba32b73a103a37b5b2b760791b606082015260800190565b6020808252602c908201527f4552433732313a20617070726f76656420717565727920666f72206e6f6e657860408201526b34b9ba32b73a103a37b5b2b760a11b606082015260800190565b6020808252818101527f4f776e61626c653a2063616c6c6572206973206e6f7420746865206f776e6572604082015260600190565b6020808252602f908201527f4552433732314d657461646174613a2055524920717565727920666f72206e6f60408201526e3732bc34b9ba32b73a103a37b5b2b760891b606082015260800190565b60208082526021908201527f4552433732313a20617070726f76616c20746f2063757272656e74206f776e656040820152603960f91b606082015260800190565b60208082526031908201527f4552433732313a207472616e736665722063616c6c6572206973206e6f74206f6040820152701ddb995c881b9bdc88185c1c1c9bdd9959607a1b606082015260800190565b6020808252602c908201527f455243373231456e756d657261626c653a20676c6f62616c20696e646578206f60408201526b7574206f6620626f756e647360a01b606082015260800190565b90815260200190565b9182526001600160a01b0316602082015260400190565b600082198211156121cf576121cf6122b4565b500190565b6000826121e3576121e36122ca565b500490565b6000816000190483118215151615612202576122026122b4565b500290565b600082821015612219576122196122b4565b500390565b60005b83811015612239578181015183820152602001612221565b838111156109515750506000910152565b60028104600182168061225e57607f821691505b6020821081141561227f57634e487b7160e01b600052602260045260246000fd5b50919050565b6000600019821415612299576122996122b4565b5060010190565b6000826122af576122af6122ca565b500690565b634e487b7160e01b600052601160045260246000fd5b634e487b7160e01b600052601260045260246000fd5b634e487b7160e01b600052604160045260246000fd5b6001600160e01b031981168114610b2657600080fdfea2646970667358221220543b7ab33b3fa317e837aaf61017393302b73dfc5776f9d6672e35f03fd5254664736f6c63430008010033a2646970667358221220249515cbf9dd97249e8879cceaebba8dcd2ee2f05fe00b9e37a72de03a40bc1a64736f6c63430008010033",
  "immutableReferences": {},
  "source": "// SPDX-License-Identifier: Apache-2.0\npragma solidity ^0.8.0;\n\nimport '@openzeppelin/contracts/token/ERC721/IERC721.sol';\n\nimport './NFTInfoStorage.sol';\nimport './NFTCollection.sol';\nimport './interface/ISales.sol';\n\ncontract metaMaster is Ownable, NFTInfoStorage{\n    //------------\n    //collection manager\n    //------------\n    event NewCollection(address indexed creator, address collection);\n\n    mapping(address => address) public collectionOwner;\n    mapping (address => address[]) public userOwnedCollections;\n\n    function userOwnedCollectionNum(address user) public view returns(uint){\n        return userOwnedCollections[user].length;\n    }\n\n    function createCollection(string memory _name, string memory _symbol,\n            string memory _baseURI, uint _max_supply, string memory _metaInfo,\n            address royaltiesReceiver, uint royaltiesPercentageInBips) public returns(address) {\n        require(royaltiesPercentageInBips + feeInBips <= 10000, \"Royalty overflow\");\n        NFTCollection _collection = new NFTCollection(_name, _symbol, _baseURI, _max_supply);\n        _collection.setMetaInfo(_metaInfo);\n        _collection.setRoyaltiesPercentageInBips(royaltiesPercentageInBips);\n        _collection.setRoyaltiesReceiver(royaltiesReceiver);\n        collectionOwner[address(_collection)] = msg.sender;\n        userOwnedCollections[msg.sender].push(address(_collection));\n        emit NewCollection(msg.sender, address(_collection));\n        return address(_collection);\n    }\n\n    function setCollectionMetaInfo(address _collection, string memory _metaInfo) external{\n        require(collectionOwner[address(_collection)] == msg.sender, \"Not owner\");\n        NFTCollection(_collection).setMetaInfo(_metaInfo);\n    }\n\n    function setCollectionRoyalty(address _collection, address royaltiesReceiver, uint royaltiesPercentageInBips) external{\n        require(collectionOwner[address(_collection)] == msg.sender, \"Not owner\");\n        require(royaltiesPercentageInBips + feeInBips <= 10000, \"Royalty overflow\");\n        NFTCollection(_collection).setRoyaltiesReceiver(royaltiesReceiver);\n        NFTCollection(_collection).setRoyaltiesPercentageInBips(royaltiesPercentageInBips);\n    }\n\n    //------------\n    //sales: manager\n    //------------\n\n    address[] public marketSales;\n\n    function addMarketSale(address _sale) external onlyOwner{\n        marketSales.push(_sale);\n        setSale(_sale, true);\n    }\n\n    //------------\n    //sales: interaction\n    //------------\n\n    function sell(address collection, uint token_id,\n        uint market, address _token, uint _price, uint _duration) public {\n        require(market < marketSales.length, \"Wrong market\");\n        require(IERC721(collection).ownerOf(token_id) == msg.sender, \"Not owner\");\n        require(tokenIsSupported[_token], \"Wrong token\");\n        require(_price == uint256(uint128(_price)), \"Price overflow\");\n        NFTCollection(collection).transferByMaster(msg.sender, marketSales[market], token_id);\n        ISales(marketSales[market]).create(collection, token_id, msg.sender, _token, _price, _duration);\n    }\n\n    //------------\n    //fee manager\n    //------------\n\n    address public feeCollector;\n\n    uint public feeInBips;\n\n    function setFeeConfig(address _feeCollector, uint _feeInBips) external onlyOwner{\n        feeCollector = _feeCollector;\n        feeInBips = _feeInBips;\n    }\n\n    mapping(address => bool) public tokenIsSupported;\n\n    function setTokenSupport(address _token, bool _status) external onlyOwner{\n        tokenIsSupported[_token] = _status;\n    }\n\n    //------------\n    //nft manager\n    //------------\n\n    function mint(address _collection, address _recipient, string memory _hash) public returns(uint){\n        require(collectionOwner[address(_collection)] == msg.sender, \"Not owner\");\n        return NFTCollection(_collection).mint(_recipient, _hash);\n    }\n\n    function mintAndSell(address _collection, string memory _hash,\n        uint market, address _token, uint _price, uint _duration) external {\n        uint _tokenId = mint(_collection, msg.sender, _hash);\n        sell(_collection, _tokenId, market, _token, _price, _duration);\n    }\n\n    //------------\n    //transfer NFT\n    //------------\n\n    function transfer(address _collection, uint _tokenId, address _recipient) public{\n        require(IERC721(_collection).ownerOf(_tokenId) == msg.sender);\n        NFTCollection(_collection).transferByMaster(msg.sender, _recipient, _tokenId);\n    }\n\n    //------------\n    //constructor\n    //------------\n\n    constructor() {\n        feeCollector = msg.sender;\n        feeInBips = 250;\n        tokenIsSupported[address(0)] = true;\n    }\n\n\n}\n",
  "sourcePath": "/Users/troll/Repository/metaLifeNFT/contracts/metaMaster.sol",
  "compiler": {
    "name": "solc",
    "version": "0.8.1+commit.df193b15.Emscripten.clang"
  },
  "schemaVersion": "3.4.1",
  "updatedAt": "2022-06-11T02:26:19.807Z",
  "devdoc": {
    "kind": "dev",
    "methods": {
      "owner()": {
        "details": "Returns the address of the current owner."
      },
      "renounceOwnership()": {
        "details": "Leaves the contract without owner. It will not be possible to call `onlyOwner` functions anymore. Can only be called by the current owner. NOTE: Renouncing ownership will leave the contract without an owner, thereby removing any functionality that is only available to the owner."
      },
      "transferOwnership(address)": {
        "details": "Transfers ownership of the contract to a new account (`newOwner`). Can only be called by the current owner."
      }
    },
    "version": 1
  },
  "userdoc": {
    "kind": "user",
    "methods": {},
    "version": 1
  }
}