{
  "contractName": "NFTCollection",
  "abi": [
    {
      "inputs": [
        {
          "internalType": "string",
          "name": "name_",
          "type": "string"
        },
        {
          "internalType": "string",
          "name": "symbol_",
          "type": "string"
        },
        {
          "internalType": "string",
          "name": "baseURI_",
          "type": "string"
        },
        {
          "internalType": "uint256",
          "name": "max_supply_",
          "type": "uint256"
        }
      ],
      "stateMutability": "nonpayable",
      "type": "constructor"
    },
    {
      "anonymous": false,
      "inputs": [
        {
          "indexed": true,
          "internalType": "address",
          "name": "owner",
          "type": "address"
        },
        {
          "indexed": true,
          "internalType": "address",
          "name": "approved",
          "type": "address"
        },
        {
          "indexed": true,
          "internalType": "uint256",
          "name": "tokenId",
          "type": "uint256"
        }
      ],
      "name": "Approval",
      "type": "event"
    },
    {
      "anonymous": false,
      "inputs": [
        {
          "indexed": true,
          "internalType": "address",
          "name": "owner",
          "type": "address"
        },
        {
          "indexed": true,
          "internalType": "address",
          "name": "operator",
          "type": "address"
        },
        {
          "indexed": false,
          "internalType": "bool",
          "name": "approved",
          "type": "bool"
        }
      ],
      "name": "ApprovalForAll",
      "type": "event"
    },
    {
      "anonymous": false,
      "inputs": [
        {
          "indexed": false,
          "internalType": "uint256",
          "name": "tokenId",
          "type": "uint256"
        },
        {
          "indexed": false,
          "internalType": "address",
          "name": "recipient",
          "type": "address"
        }
      ],
      "name": "Mint",
      "type": "event"
    },
    {
      "anonymous": false,
      "inputs": [
        {
          "indexed": true,
          "internalType": "address",
          "name": "previousOwner",
          "type": "address"
        },
        {
          "indexed": true,
          "internalType": "address",
          "name": "newOwner",
          "type": "address"
        }
      ],
      "name": "OwnershipTransferred",
      "type": "event"
    },
    {
      "anonymous": false,
      "inputs": [
        {
          "indexed": true,
          "internalType": "address",
          "name": "from",
          "type": "address"
        },
        {
          "indexed": true,
          "internalType": "address",
          "name": "to",
          "type": "address"
        },
        {
          "indexed": true,
          "internalType": "uint256",
          "name": "tokenId",
          "type": "uint256"
        }
      ],
      "name": "Transfer",
      "type": "event"
    },
    {
      "inputs": [],
      "name": "MAX_SUPPLY",
      "outputs": [
        {
          "internalType": "uint256",
          "name": "",
          "type": "uint256"
        }
      ],
      "stateMutability": "view",
      "type": "function"
    },
    {
      "inputs": [
        {
          "internalType": "address",
          "name": "to",
          "type": "address"
        },
        {
          "internalType": "uint256",
          "name": "tokenId",
          "type": "uint256"
        }
      ],
      "name": "approve",
      "outputs": [],
      "stateMutability": "nonpayable",
      "type": "function"
    },
    {
      "inputs": [
        {
          "internalType": "address",
          "name": "owner",
          "type": "address"
        }
      ],
      "name": "balanceOf",
      "outputs": [
        {
          "internalType": "uint256",
          "name": "",
          "type": "uint256"
        }
      ],
      "stateMutability": "view",
      "type": "function"
    },
    {
      "inputs": [
        {
          "internalType": "uint256",
          "name": "tokenId",
          "type": "uint256"
        }
      ],
      "name": "getApproved",
      "outputs": [
        {
          "internalType": "address",
          "name": "",
          "type": "address"
        }
      ],
      "stateMutability": "view",
      "type": "function"
    },
    {
      "inputs": [
        {
          "internalType": "address",
          "name": "owner",
          "type": "address"
        },
        {
          "internalType": "address",
          "name": "operator",
          "type": "address"
        }
      ],
      "name": "isApprovedForAll",
      "outputs": [
        {
          "internalType": "bool",
          "name": "",
          "type": "bool"
        }
      ],
      "stateMutability": "view",
      "type": "function"
    },
    {
      "inputs": [],
      "name": "metaInfo",
      "outputs": [
        {
          "internalType": "string",
          "name": "",
          "type": "string"
        }
      ],
      "stateMutability": "view",
      "type": "function"
    },
    {
      "inputs": [],
      "name": "name",
      "outputs": [
        {
          "internalType": "string",
          "name": "",
          "type": "string"
        }
      ],
      "stateMutability": "view",
      "type": "function"
    },
    {
      "inputs": [],
      "name": "owner",
      "outputs": [
        {
          "internalType": "address",
          "name": "",
          "type": "address"
        }
      ],
      "stateMutability": "view",
      "type": "function"
    },
    {
      "inputs": [
        {
          "internalType": "uint256",
          "name": "tokenId",
          "type": "uint256"
        }
      ],
      "name": "ownerOf",
      "outputs": [
        {
          "internalType": "address",
          "name": "",
          "type": "address"
        }
      ],
      "stateMutability": "view",
      "type": "function"
    },
    {
      "inputs": [],
      "name": "renounceOwnership",
      "outputs": [],
      "stateMutability": "nonpayable",
      "type": "function"
    },
    {
      "inputs": [],
      "name": "royaltiesPercentageInBips",
      "outputs": [
        {
          "internalType": "uint256",
          "name": "",
          "type": "uint256"
        }
      ],
      "stateMutability": "view",
      "type": "function"
    },
    {
      "inputs": [],
      "name": "royaltiesReceiver",
      "outputs": [
        {
          "internalType": "address",
          "name": "",
          "type": "address"
        }
      ],
      "stateMutability": "view",
      "type": "function"
    },
    {
      "inputs": [
        {
          "internalType": "address",
          "name": "from",
          "type": "address"
        },
        {
          "internalType": "address",
          "name": "to",
          "type": "address"
        },
        {
          "internalType": "uint256",
          "name": "tokenId",
          "type": "uint256"
        }
      ],
      "name": "safeTransferFrom",
      "outputs": [],
      "stateMutability": "nonpayable",
      "type": "function"
    },
    {
      "inputs": [
        {
          "internalType": "address",
          "name": "from",
          "type": "address"
        },
        {
          "internalType": "address",
          "name": "to",
          "type": "address"
        },
        {
          "internalType": "uint256",
          "name": "tokenId",
          "type": "uint256"
        },
        {
          "internalType": "bytes",
          "name": "_data",
          "type": "bytes"
        }
      ],
      "name": "safeTransferFrom",
      "outputs": [],
      "stateMutability": "nonpayable",
      "type": "function"
    },
    {
      "inputs": [
        {
          "internalType": "address",
          "name": "operator",
          "type": "address"
        },
        {
          "internalType": "bool",
          "name": "approved",
          "type": "bool"
        }
      ],
      "name": "setApprovalForAll",
      "outputs": [],
      "stateMutability": "nonpayable",
      "type": "function"
    },
    {
      "inputs": [],
      "name": "symbol",
      "outputs": [
        {
          "internalType": "string",
          "name": "",
          "type": "string"
        }
      ],
      "stateMutability": "view",
      "type": "function"
    },
    {
      "inputs": [
        {
          "internalType": "uint256",
          "name": "index",
          "type": "uint256"
        }
      ],
      "name": "tokenByIndex",
      "outputs": [
        {
          "internalType": "uint256",
          "name": "",
          "type": "uint256"
        }
      ],
      "stateMutability": "view",
      "type": "function"
    },
    {
      "inputs": [
        {
          "internalType": "address",
          "name": "owner",
          "type": "address"
        },
        {
          "internalType": "uint256",
          "name": "index",
          "type": "uint256"
        }
      ],
      "name": "tokenOfOwnerByIndex",
      "outputs": [
        {
          "internalType": "uint256",
          "name": "",
          "type": "uint256"
        }
      ],
      "stateMutability": "view",
      "type": "function"
    },
    {
      "inputs": [],
      "name": "totalSupply",
      "outputs": [
        {
          "internalType": "uint256",
          "name": "",
          "type": "uint256"
        }
      ],
      "stateMutability": "view",
      "type": "function"
    },
    {
      "inputs": [
        {
          "internalType": "address",
          "name": "from",
          "type": "address"
        },
        {
          "internalType": "address",
          "name": "to",
          "type": "address"
        },
        {
          "internalType": "uint256",
          "name": "tokenId",
          "type": "uint256"
        }
      ],
      "name": "transferFrom",
      "outputs": [],
      "stateMutability": "nonpayable",
      "type": "function"
    },
    {
      "inputs": [
        {
          "internalType": "address",
          "name": "newOwner",
          "type": "address"
        }
      ],
      "name": "transferOwnership",
      "outputs": [],
      "stateMutability": "nonpayable",
      "type": "function"
    },
    {
      "inputs": [
        {
          "internalType": "string",
          "name": "metaInfo_",
          "type": "string"
        }
      ],
      "name": "setMetaInfo",
      "outputs": [],
      "stateMutability": "nonpayable",
      "type": "function"
    },
    {
      "inputs": [
        {
          "internalType": "uint256",
          "name": "newRoyaltiesPercentageInBips",
          "type": "uint256"
        }
      ],
      "name": "setRoyaltiesPercentageInBips",
      "outputs": [],
      "stateMutability": "nonpayable",
      "type": "function"
    },
    {
      "inputs": [
        {
          "internalType": "address",
          "name": "newRoyaltiesReceiver",
          "type": "address"
        }
      ],
      "name": "setRoyaltiesReceiver",
      "outputs": [],
      "stateMutability": "nonpayable",
      "type": "function"
    },
    {
      "inputs": [
        {
          "internalType": "uint256",
          "name": "_tokenId",
          "type": "uint256"
        },
        {
          "internalType": "uint256",
          "name": "_salePrice",
          "type": "uint256"
        }
      ],
      "name": "royaltyInfo",
      "outputs": [
        {
          "internalType": "address",
          "name": "receiver",
          "type": "address"
        },
        {
          "internalType": "uint256",
          "name": "royaltyAmount",
          "type": "uint256"
        }
      ],
      "stateMutability": "view",
      "type": "function"
    },
    {
      "inputs": [
        {
          "internalType": "address",
          "name": "recipient",
          "type": "address"
        },
        {
          "internalType": "string",
          "name": "hash",
          "type": "string"
        }
      ],
      "name": "mint",
      "outputs": [
        {
          "internalType": "uint256",
          "name": "tokenId",
          "type": "uint256"
        }
      ],
      "stateMutability": "nonpayable",
      "type": "function"
    },
    {
      "inputs": [
        {
          "internalType": "uint256",
          "name": "tokenId",
          "type": "uint256"
        }
      ],
      "name": "tokenURI",
      "outputs": [
        {
          "internalType": "string",
          "name": "",
          "type": "string"
        }
      ],
      "stateMutability": "view",
      "type": "function"
    },
    {
      "inputs": [
        {
          "internalType": "bytes4",
          "name": "interfaceId",
          "type": "bytes4"
        }
      ],
      "name": "supportsInterface",
      "outputs": [
        {
          "internalType": "bool",
          "name": "",
          "type": "bool"
        }
      ],
      "stateMutability": "view",
      "type": "function"
    },
    {
      "inputs": [
        {
          "internalType": "address",
          "name": "from",
          "type": "address"
        },
        {
          "internalType": "address",
          "name": "to",
          "type": "address"
        },
        {
          "internalType": "uint256",
          "name": "tokenId",
          "type": "uint256"
        }
      ],
      "name": "transferByMaster",
      "outputs": [],
      "stateMutability": "nonpayable",
      "type": "function"
    }
  ],
  "bytecode": "0x60806040523480156200001157600080fd5b50604051620026e2380380620026e2833981016040819052620000349162000271565b83836200004133620000c8565b81516200005690600190602085019062000118565b5080516200006c90600290602084019062000118565b50508251620000849150601090602085019062000118565b50600d8190556001600160601b0381168114620000be5760405162461bcd60e51b8152600401620000b59062000306565b60405180910390fd5b5050505062000390565b600080546001600160a01b038381166001600160a01b0319831681178455604051919092169283917f8be0079c531659141344cd1fd0a4f28419497f9722a3daafe3b4186f6b6457e09190a35050565b82805462000126906200033d565b90600052602060002090601f0160209004810192826200014a576000855562000195565b82601f106200016557805160ff191683800117855562000195565b8280016001018555821562000195579182015b828111156200019557825182559160200191906001019062000178565b50620001a3929150620001a7565b5090565b5b80821115620001a35760008155600101620001a8565b600082601f830112620001cf578081fd5b81516001600160401b0380821115620001ec57620001ec6200037a565b604051601f8301601f19908116603f011681019082821181831017156200021757620002176200037a565b8160405283815260209250868385880101111562000233578485fd5b8491505b8382101562000256578582018301518183018401529082019062000237565b838211156200026757848385830101525b9695505050505050565b6000806000806080858703121562000287578384fd5b84516001600160401b03808211156200029e578586fd5b620002ac88838901620001be565b95506020870151915080821115620002c2578485fd5b620002d088838901620001be565b94506040870151915080821115620002e6578384fd5b50620002f587828801620001be565b606096909601519497939650505050565b6020808252601b908201527f546f6f206d616e7920737570706c6965733a206f766572666c6f770000000000604082015260600190565b6002810460018216806200035257607f821691505b602082108114156200037457634e487b7160e01b600052602260045260246000fd5b50919050565b634e487b7160e01b600052604160045260246000fd5b61234280620003a06000396000f3fe608060405234801561001057600080fd5b50600436106101cf5760003560e01c806370a0823111610104578063b5143715116100a2578063d0def52111610071578063d0def52114610399578063e985e9c5146103ac578063f2fde38b146103bf578063f788359a146103d2576101cf565b8063b514371514610358578063b70aeaf41461036b578063b88d4fde14610373578063c87b56dd14610386576101cf565b80638da5cb5b116100de5780638da5cb5b1461032d57806395d89b4114610335578063a22cb4651461033d578063a3a51bd514610350576101cf565b806370a08231146102ff578063715018a61461031257806374d670ef1461031a576101cf565b806323b872dd1161017157806332cb6b0c1161014b57806332cb6b0c146102be57806342842e0e146102c65780634f6ccce7146102d95780636352211e146102ec576101cf565b806323b872dd146102775780632a55205a1461028a5780632f745c59146102ab576101cf565b8063086b2444116101ad578063086b244414610232578063095ea7b31461024757806318160ddd1461025a5780632175c9901461026f576101cf565b806301ffc9a7146101d457806306fdde03146101fd578063081812fc14610212575b600080fd5b6101e76101e2366004611a36565b6103e5565b6040516101f49190611bbb565b60405180910390f35b610205610412565b6040516101f49190611bc6565b610225610220366004611aa1565b6104a4565b6040516101f49190611b51565b6102456102403660046118d3565b6104f0565b005b610245610255366004611a0d565b61052f565b6102626105c2565b6040516101f4919061219c565b6102626105c8565b6102456102853660046118d3565b6105ce565b61029d610298366004611ab9565b6105fb565b6040516101f4929190611ba2565b6102626102b9366004611a0d565b610632565b610262610684565b6102456102d43660046118d3565b61068a565b6102626102e7366004611aa1565b6106a5565b6102256102fa366004611aa1565b610700565b61026261030d366004611887565b610735565b610245610779565b610245610328366004611a6e565b6107b4565b6102256107fa565b610205610809565b61024561034b366004611987565b610818565b61022561082a565b610245610366366004611887565b610839565b61020561088a565b61024561038136600461190e565b610918565b610205610394366004611aa1565b610957565b6102626103a73660046119c1565b610962565b6101e76103ba3660046118a1565b610a9a565b6102456103cd366004611887565b610ac8565b6102456103e0366004611aa1565b610b29565b600063152a902d60e11b6001600160e01b03198316148061040a575061040a82610b5d565b90505b919050565b6060600180546104219061224a565b80601f016020809104026020016040519081016040528092919081815260200182805461044d9061224a565b801561049a5780601f1061046f5761010080835404028352916020019161049a565b820191906000526020600020905b81548152906001019060200180831161047d57829003601f168201915b5050505050905090565b60006104af82610b82565b6104d45760405162461bcd60e51b81526004016104cb90611fee565b60405180910390fd5b506000908152600560205260409020546001600160a01b031690565b336104f96107fa565b6001600160a01b03161461051f5760405162461bcd60e51b81526004016104cb9061203a565b61052a838383610b9f565b505050565b600061053a82610700565b9050806001600160a01b0316836001600160a01b0316141561056e5760405162461bcd60e51b81526004016104cb906120be565b806001600160a01b0316610580610cd2565b6001600160a01b0316148061059c575061059c816103ba610cd2565b6105b85760405162461bcd60e51b81526004016104cb90611e2a565b61052a8383610cd6565b60095490565b600f5481565b6105df6105d9610cd2565b82610d44565b61051f5760405162461bcd60e51b81526004016104cb906120ff565b6000806000612710600f548561061191906121e8565b61061b91906121d4565b600e546001600160a01b0316969095509350505050565b600061063d83610735565b821061065b5760405162461bcd60e51b81526004016104cb90611bd9565b506001600160a01b03919091166000908152600760209081526040808320938352929052205490565b600d5481565b61052a83838360405180602001604052806000815250610918565b60006106af6105c2565b82106106cd5760405162461bcd60e51b81526004016104cb90612150565b600982815481106106ee57634e487b7160e01b600052603260045260246000fd5b90600052602060002001549050919050565b6000818152600360205260408120546001600160a01b03168061040a5760405162461bcd60e51b81526004016104cb90611ed1565b60006001600160a01b03821661075d5760405162461bcd60e51b81526004016104cb90611e87565b506001600160a01b031660009081526004602052604090205490565b336107826107fa565b6001600160a01b0316146107a85760405162461bcd60e51b81526004016104cb9061203a565b6107b26000610dc9565b565b336107bd6107fa565b6001600160a01b0316146107e35760405162461bcd60e51b81526004016104cb9061203a565b80516107f6906011906020840190611742565b5050565b6000546001600160a01b031690565b6060600280546104219061224a565b6107f6610823610cd2565b8383610e19565b600e546001600160a01b031681565b336108426107fa565b6001600160a01b0316146108685760405162461bcd60e51b81526004016104cb9061203a565b600e80546001600160a01b0319166001600160a01b0392909216919091179055565b601180546108979061224a565b80601f01602080910402602001604051908101604052809291908181526020018280546108c39061224a565b80156109105780601f106108e557610100808354040283529160200191610910565b820191906000526020600020905b8154815290600101906020018083116108f357829003601f168201915b505050505081565b610929610923610cd2565b83610d44565b6109455760405162461bcd60e51b81526004016104cb906120ff565b61095184848484610ebc565b50505050565b606061040a82610eef565b60003361096d6107fa565b6001600160a01b0316146109935760405162461bcd60e51b81526004016104cb9061203a565b600d5461099e6105c2565b11156109bc5760405162461bcd60e51b81526004016104cb90611d01565b60008251116109ca57600080fd5b600c826040516109da9190611b06565b9081526040519081900360200190205460ff16600114156109fa57600080fd5b6001600c83604051610a0c9190611b06565b908152604051908190036020019020805460ff9290921660ff199092169190911790556000610a396105c2565b610a449060016121bc565b9050610a508482611008565b610a5a8184611022565b7ff3cea5493d790af0133817606f7350a91d7f154ea52eaa79d179d4d231e501028185604051610a8b9291906121a5565b60405180910390a19392505050565b6001600160a01b03918216600090815260066020908152604080832093909416825291909152205460ff1690565b33610ad16107fa565b6001600160a01b031614610af75760405162461bcd60e51b81526004016104cb9061203a565b6001600160a01b038116610b1d5760405162461bcd60e51b81526004016104cb90611c76565b610b2681610dc9565b50565b33610b326107fa565b6001600160a01b031614610b585760405162461bcd60e51b81526004016104cb9061203a565b600f55565b60006001600160e01b0319821663780e9d6360e01b148061040a575061040a82611066565b6000908152600360205260409020546001600160a01b0316151590565b826001600160a01b0316610bb282610700565b6001600160a01b031614610bd85760405162461bcd60e51b81526004016104cb90611cbc565b6001600160a01b038216610bfe5760405162461bcd60e51b81526004016104cb90611d63565b610c098383836110a6565b610c14600082610cd6565b6001600160a01b0383166000908152600460205260408120805460019290610c3d908490612207565b90915550506001600160a01b0382166000908152600460205260408120805460019290610c6b9084906121bc565b909155505060008181526003602052604080822080546001600160a01b0319166001600160a01b0386811691821790925591518493918716917fddf252ad1be2c89b69c2b068fc378daa952ba7f163c4a11628f55a4df523b3ef91a461052a83838361052a565b3390565b600081815260056020526040902080546001600160a01b0319166001600160a01b0384169081179091558190610d0b82610700565b6001600160a01b03167f8c5be1e5ebec7d5bd14f71427d1e84f3dd0314c0f7b2291e5b200ac8c7c3b92560405160405180910390a45050565b6000610d4f82610b82565b610d6b5760405162461bcd60e51b81526004016104cb90611dde565b6000610d7683610700565b9050806001600160a01b0316846001600160a01b03161480610d9d5750610d9d8185610a9a565b80610dc15750836001600160a01b0316610db6846104a4565b6001600160a01b0316145b949350505050565b600080546001600160a01b038381166001600160a01b0319831681178455604051919092169283917f8be0079c531659141344cd1fd0a4f28419497f9722a3daafe3b4186f6b6457e09190a35050565b816001600160a01b0316836001600160a01b03161415610e4b5760405162461bcd60e51b81526004016104cb90611da7565b6001600160a01b0383811660008181526006602090815260408083209487168084529490915290819020805460ff1916851515179055517f17307eab39ab6107e8899845ad3d59bd9653f200f220920489ca2b5937696c3190610eaf908590611bbb565b60405180910390a3505050565b610ec7848484610b9f565b610ed3848484846110b1565b6109515760405162461bcd60e51b81526004016104cb90611c24565b6060610efa82610b82565b610f165760405162461bcd60e51b81526004016104cb90611f9d565b6000828152600b602052604081208054610f2f9061224a565b80601f0160208091040260200160405190810160405280929190818152602001828054610f5b9061224a565b8015610fa85780601f10610f7d57610100808354040283529160200191610fa8565b820191906000526020600020905b815481529060010190602001808311610f8b57829003601f168201915b505050505090506000610fb96111cc565b9050805160001415610fcd5750905061040d565b815115610fff578082604051602001610fe7929190611b22565b6040516020818303038152906040529250505061040d565b610dc1846111db565b6107f682826040518060200160405280600081525061125e565b61102b82610b82565b6110475760405162461bcd60e51b81526004016104cb90611f1a565b6000828152600b60209081526040909120825161052a92840190611742565b60006001600160e01b031982166380ac58cd60e01b148061109757506001600160e01b03198216635b5e139f60e01b145b8061040a575061040a82611291565b61052a8383836112aa565b60006110c5846001600160a01b0316611333565b156111c157836001600160a01b031663150b7a026110e1610cd2565b8786866040518563ffffffff1660e01b81526004016111039493929190611b65565b602060405180830381600087803b15801561111d57600080fd5b505af192505050801561114d575060408051601f3d908101601f1916820190925261114a91810190611a52565b60015b6111a7573d80801561117b576040519150601f19603f3d011682016040523d82523d6000602084013e611180565b606091505b50805161119f5760405162461bcd60e51b81526004016104cb90611c24565b805181602001fd5b6001600160e01b031916630a85bd0160e11b149050610dc1565b506001949350505050565b6060601080546104219061224a565b60606111e682610b82565b6112025760405162461bcd60e51b81526004016104cb9061206f565b600061120c6111cc565b9050600081511161122c5760405180602001604052806000815250611257565b8061123684611342565b604051602001611247929190611b22565b6040516020818303038152906040525b9392505050565b611268838361145d565b61127560008484846110b1565b61052a5760405162461bcd60e51b81526004016104cb90611c24565b6001600160e01b031981166301ffc9a760e01b14919050565b6112b583838361052a565b6001600160a01b0383166112d1576112cc81611544565b6112f4565b816001600160a01b0316836001600160a01b0316146112f4576112f48382611588565b6001600160a01b0382166113105761130b81611625565b61052a565b826001600160a01b0316826001600160a01b03161461052a5761052a82826116fe565b6001600160a01b03163b151590565b60608161136757506040805180820190915260018152600360fc1b602082015261040d565b8160005b8115611391578061137b81612285565b915061138a9050600a836121d4565b915061136b565b60008167ffffffffffffffff8111156113ba57634e487b7160e01b600052604160045260246000fd5b6040519080825280601f01601f1916602001820160405280156113e4576020820181803683370190505b5090505b8415610dc1576113f9600183612207565b9150611406600a866122a0565b6114119060306121bc565b60f81b81838151811061143457634e487b7160e01b600052603260045260246000fd5b60200101906001600160f81b031916908160001a905350611456600a866121d4565b94506113e8565b6001600160a01b0382166114835760405162461bcd60e51b81526004016104cb90611f68565b61148c81610b82565b156114a95760405162461bcd60e51b81526004016104cb90611d2c565b6114b5600083836110a6565b6001600160a01b03821660009081526004602052604081208054600192906114de9084906121bc565b909155505060008181526003602052604080822080546001600160a01b0319166001600160a01b03861690811790915590518392907fddf252ad1be2c89b69c2b068fc378daa952ba7f163c4a11628f55a4df523b3ef908290a46107f66000838361052a565b600980546000838152600a60205260408120829055600182018355919091527f6e1540171b6c0c960b71a7020d9f60077f6af931a8bbf590da0223dacf75c7af0155565b6000600161159584610735565b61159f9190612207565b6000838152600860205260409020549091508082146115f2576001600160a01b03841660009081526007602090815260408083208584528252808320548484528184208190558352600890915290208190555b5060009182526008602090815260408084208490556001600160a01b039094168352600781528383209183525290812055565b60095460009061163790600190612207565b6000838152600a60205260408120546009805493945090928490811061166d57634e487b7160e01b600052603260045260246000fd5b90600052602060002001549050806009838154811061169c57634e487b7160e01b600052603260045260246000fd5b6000918252602080832090910192909255828152600a909152604080822084905585825281205560098054806116e257634e487b7160e01b600052603160045260246000fd5b6001900381819060005260206000200160009055905550505050565b600061170983610735565b6001600160a01b039093166000908152600760209081526040808320868452825280832085905593825260089052919091209190915550565b82805461174e9061224a565b90600052602060002090601f01602090048101928261177057600085556117b6565b82601f1061178957805160ff19168380011785556117b6565b828001600101855582156117b6579182015b828111156117b657825182559160200191906001019061179b565b506117c29291506117c6565b5090565b5b808211156117c257600081556001016117c7565b600067ffffffffffffffff808411156117f6576117f66122e0565b604051601f8501601f19908116603f0116810190828211818310171561181e5761181e6122e0565b8160405280935085815286868601111561183757600080fd5b858560208301376000602087830101525050509392505050565b80356001600160a01b038116811461040d57600080fd5b600082601f830112611878578081fd5b611257838335602085016117db565b600060208284031215611898578081fd5b61125782611851565b600080604083850312156118b3578081fd5b6118bc83611851565b91506118ca60208401611851565b90509250929050565b6000806000606084860312156118e7578081fd5b6118f084611851565b92506118fe60208501611851565b9150604084013590509250925092565b60008060008060808587031215611923578081fd5b61192c85611851565b935061193a60208601611851565b925060408501359150606085013567ffffffffffffffff81111561195c578182fd5b8501601f8101871361196c578182fd5b61197b878235602084016117db565b91505092959194509250565b60008060408385031215611999578182fd5b6119a283611851565b9150602083013580151581146119b6578182fd5b809150509250929050565b600080604083850312156119d3578182fd5b6119dc83611851565b9150602083013567ffffffffffffffff8111156119f7578182fd5b611a0385828601611868565b9150509250929050565b60008060408385031215611a1f578182fd5b611a2883611851565b946020939093013593505050565b600060208284031215611a47578081fd5b8135611257816122f6565b600060208284031215611a63578081fd5b8151611257816122f6565b600060208284031215611a7f578081fd5b813567ffffffffffffffff811115611a95578182fd5b610dc184828501611868565b600060208284031215611ab2578081fd5b5035919050565b60008060408385031215611acb578182fd5b50508035926020909101359150565b60008151808452611af281602086016020860161221e565b601f01601f19169290920160200192915050565b60008251611b1881846020870161221e565b9190910192915050565b60008351611b3481846020880161221e565b835190830190611b4881836020880161221e565b01949350505050565b6001600160a01b0391909116815260200190565b6001600160a01b0385811682528416602082015260408101839052608060608201819052600090611b9890830184611ada565b9695505050505050565b6001600160a01b03929092168252602082015260400190565b901515815260200190565b6000602082526112576020830184611ada565b6020808252602b908201527f455243373231456e756d657261626c653a206f776e657220696e646578206f7560408201526a74206f6620626f756e647360a81b606082015260800190565b60208082526032908201527f4552433732313a207472616e7366657220746f206e6f6e20455243373231526560408201527131b2b4bb32b91034b6b83632b6b2b73a32b960711b606082015260800190565b60208082526026908201527f4f776e61626c653a206e6577206f776e657220697320746865207a65726f206160408201526564647265737360d01b606082015260800190565b60208082526025908201527f4552433732313a207472616e736665722066726f6d20696e636f72726563742060408201526437bbb732b960d91b606082015260800190565b602080825260119082015270105b1b081d1bdad95b9cc81b5a5b9d1959607a1b604082015260600190565b6020808252601c908201527f4552433732313a20746f6b656e20616c7265616479206d696e74656400000000604082015260600190565b60208082526024908201527f4552433732313a207472616e7366657220746f20746865207a65726f206164646040820152637265737360e01b606082015260800190565b60208082526019908201527f4552433732313a20617070726f766520746f2063616c6c657200000000000000604082015260600190565b6020808252602c908201527f4552433732313a206f70657261746f7220717565727920666f72206e6f6e657860408201526b34b9ba32b73a103a37b5b2b760a11b606082015260800190565b60208082526038908201527f4552433732313a20617070726f76652063616c6c6572206973206e6f74206f7760408201527f6e6572206e6f7220617070726f76656420666f7220616c6c0000000000000000606082015260800190565b6020808252602a908201527f4552433732313a2062616c616e636520717565727920666f7220746865207a65604082015269726f206164647265737360b01b606082015260800190565b60208082526029908201527f4552433732313a206f776e657220717565727920666f72206e6f6e657869737460408201526832b73a103a37b5b2b760b91b606082015260800190565b6020808252602e908201527f45524337323155524953746f726167653a2055524920736574206f66206e6f6e60408201526d32bc34b9ba32b73a103a37b5b2b760911b606082015260800190565b6020808252818101527f4552433732313a206d696e7420746f20746865207a65726f2061646472657373604082015260600190565b60208082526031908201527f45524337323155524953746f726167653a2055524920717565727920666f72206040820152703737b732bc34b9ba32b73a103a37b5b2b760791b606082015260800190565b6020808252602c908201527f4552433732313a20617070726f76656420717565727920666f72206e6f6e657860408201526b34b9ba32b73a103a37b5b2b760a11b606082015260800190565b6020808252818101527f4f776e61626c653a2063616c6c6572206973206e6f7420746865206f776e6572604082015260600190565b6020808252602f908201527f4552433732314d657461646174613a2055524920717565727920666f72206e6f60408201526e3732bc34b9ba32b73a103a37b5b2b760891b606082015260800190565b60208082526021908201527f4552433732313a20617070726f76616c20746f2063757272656e74206f776e656040820152603960f91b606082015260800190565b60208082526031908201527f4552433732313a207472616e736665722063616c6c6572206973206e6f74206f6040820152701ddb995c881b9bdc88185c1c1c9bdd9959607a1b606082015260800190565b6020808252602c908201527f455243373231456e756d657261626c653a20676c6f62616c20696e646578206f60408201526b7574206f6620626f756e647360a01b606082015260800190565b90815260200190565b9182526001600160a01b0316602082015260400190565b600082198211156121cf576121cf6122b4565b500190565b6000826121e3576121e36122ca565b500490565b6000816000190483118215151615612202576122026122b4565b500290565b600082821015612219576122196122b4565b500390565b60005b83811015612239578181015183820152602001612221565b838111156109515750506000910152565b60028104600182168061225e57607f821691505b6020821081141561227f57634e487b7160e01b600052602260045260246000fd5b50919050565b6000600019821415612299576122996122b4565b5060010190565b6000826122af576122af6122ca565b500690565b634e487b7160e01b600052601160045260246000fd5b634e487b7160e01b600052601260045260246000fd5b634e487b7160e01b600052604160045260246000fd5b6001600160e01b031981168114610b2657600080fdfea2646970667358221220543b7ab33b3fa317e837aaf61017393302b73dfc5776f9d6672e35f03fd5254664736f6c63430008010033",
  "immutableReferences": {},
  "source": "// SPDX-License-Identifier: Apache-2.0\npragma solidity ^0.8.0;\n\n//import '@openZeppelin/contracts/access/Ownable.sol';\nimport '@openzeppelin/contracts/token/ERC721/extensions/ERC721URIStorage.sol';\nimport '@openzeppelin/contracts/token/ERC721/extensions/ERC721Enumerable.sol';\n\nimport \"./libraries/Ownable.sol\";\nimport \"./interface/IERC2981.sol\";\n\n\ncontract NFTCollection is Ownable, ERC721Enumerable, ERC721URIStorage {\n\n    // Keep a mapping of token ids and corresponding IPFS hashes\n    mapping(string => uint8) hashes;\n    // Maximum amounts of mintable tokens\n    uint256 public MAX_SUPPLY;\n    // Address of the royalties recipient\n    address public royaltiesReceiver;\n    // Percentage of each sale to pay as royalties 2.5 = 250 in bips\n    uint256 public  royaltiesPercentageInBips ;\n    //Overrides ERC-721's _baseURI function\n    string private baseURI;\n    //metaInfo\n    string public metaInfo;\n    // Events\n    event Mint(uint256 tokenId, address recipient);\n\n    constructor(string memory name_, string memory symbol_, string memory baseURI_, uint max_supply_)\n    ERC721(name_, symbol_) {\n        baseURI = baseURI_;\n        MAX_SUPPLY = max_supply_;\n        require(uint(uint96(MAX_SUPPLY)) == MAX_SUPPLY, \"Too many supplies: overflow\");\n    }\n\n    /** Overrides ERC-721's _baseURI function */\n    function _baseURI() internal view override returns (string memory) {\n        return baseURI;\n    }\n\n    function setMetaInfo(string memory metaInfo_) external onlyOwner {\n        metaInfo = metaInfo_;\n    }\n\n    function setRoyaltiesPercentageInBips(uint newRoyaltiesPercentageInBips)\n    external onlyOwner {\n        royaltiesPercentageInBips = newRoyaltiesPercentageInBips;\n    }\n\n    function setRoyaltiesReceiver(address newRoyaltiesReceiver)\n    external onlyOwner {\n        royaltiesReceiver = newRoyaltiesReceiver;\n    }\n\n\n    /// @notice Called with the sale price to determine how much royalty\n    //          is owed and to whom.\n    /// @param _tokenId - the NFT asset queried for royalty information\n    /// @param _salePrice - sale price of the NFT asset specified by _tokenId\n    /// @return receiver - address of who should be sent the royalty payment\n    /// @return royaltyAmount - the royalty payment amount for _value sale price\n    function royaltyInfo(uint256 _tokenId, uint256 _salePrice) external view\n    returns (address receiver, uint256 royaltyAmount) {\n        _tokenId;\n        uint256 royalties = (_salePrice * royaltiesPercentageInBips) / 10000 ;\n        return (royaltiesReceiver, royalties);\n    }\n\n\n    /// @notice Mints tokens\n    /// @param recipient - the address to which the token will be transfered\n    /// @param hash - the IPFS hash of the token's resource\n    /// @return tokenId - the id of the token\n    function mint(address recipient, string memory hash)\n    external onlyOwner\n    returns (uint256 tokenId)\n    {\n        require(totalSupply() <= MAX_SUPPLY, \"All tokens minted\");\n        require(bytes(hash).length > 0); // dev: Hash can not be empty!\n        require(hashes[hash] != 1); // dev: Can't use the same hash twice\n        hashes[hash] = 1;\n        uint256 newItemId = totalSupply() + 1;\n        _safeMint(recipient, newItemId);\n        _setTokenURI(newItemId, hash);\n        emit Mint(newItemId, recipient);\n        return newItemId;\n    }\n\n    //overrides for compiler check\n    function _beforeTokenTransfer(address from, address to, uint256 amount)\n    internal override(ERC721, ERC721Enumerable) {\n        super._beforeTokenTransfer(from, to, amount);\n    }\n\n    //overrides for compiler check\n    function _burn(uint256 tokenId)\n    internal override(ERC721, ERC721URIStorage) {\n        super._burn(tokenId);\n    }\n\n    //overrides for compiler check\n    function tokenURI(uint256 tokenId)\n    public view override(ERC721, ERC721URIStorage)\n    returns (string memory) {\n        return super.tokenURI(tokenId);\n    }\n\n    /// @notice Informs callers that this contract supports ERC2981\n    function supportsInterface(bytes4 interfaceId)\n    public view override(ERC721, ERC721Enumerable)\n    returns (bool) {\n        return interfaceId == 0x2a55205a || //ERC2981\n        super.supportsInterface(interfaceId);\n    }\n\n    //note that logical owner of collection should be master contract\n    //yet actual owner is recoreded in master contract\n    function transferByMaster(address from, address to, uint tokenId) external onlyOwner {\n        _transfer(from, to, tokenId);\n    }\n}\n",
  "sourcePath": "/Users/troll/Repository/metaLifeNFT/contracts/NFTCollection.sol",
  "compiler": {
    "name": "solc",
    "version": "0.8.1+commit.df193b15.Emscripten.clang"
  },
  "schemaVersion": "3.4.1",
  "updatedAt": "2022-05-30T03:43:34.857Z",
  "devdoc": {
    "kind": "dev",
    "methods": {
      "approve(address,uint256)": {
        "details": "See {IERC721-approve}."
      },
      "balanceOf(address)": {
        "details": "See {IERC721-balanceOf}."
      },
      "getApproved(uint256)": {
        "details": "See {IERC721-getApproved}."
      },
      "isApprovedForAll(address,address)": {
        "details": "See {IERC721-isApprovedForAll}."
      },
      "mint(address,string)": {
        "params": {
          "hash": "- the IPFS hash of the token's resource",
          "recipient": "- the address to which the token will be transfered"
        },
        "returns": {
          "tokenId": "- the id of the token"
        }
      },
      "name()": {
        "details": "See {IERC721Metadata-name}."
      },
      "owner()": {
        "details": "Returns the address of the current owner."
      },
      "ownerOf(uint256)": {
        "details": "See {IERC721-ownerOf}."
      },
      "renounceOwnership()": {
        "details": "Leaves the contract without owner. It will not be possible to call `onlyOwner` functions anymore. Can only be called by the current owner. NOTE: Renouncing ownership will leave the contract without an owner, thereby removing any functionality that is only available to the owner."
      },
      "royaltyInfo(uint256,uint256)": {
        "params": {
          "_salePrice": "- sale price of the NFT asset specified by _tokenId",
          "_tokenId": "- the NFT asset queried for royalty information"
        },
        "returns": {
          "receiver": "- address of who should be sent the royalty payment",
          "royaltyAmount": "- the royalty payment amount for _value sale price"
        }
      },
      "safeTransferFrom(address,address,uint256)": {
        "details": "See {IERC721-safeTransferFrom}."
      },
      "safeTransferFrom(address,address,uint256,bytes)": {
        "details": "See {IERC721-safeTransferFrom}."
      },
      "setApprovalForAll(address,bool)": {
        "details": "See {IERC721-setApprovalForAll}."
      },
      "symbol()": {
        "details": "See {IERC721Metadata-symbol}."
      },
      "tokenByIndex(uint256)": {
        "details": "See {IERC721Enumerable-tokenByIndex}."
      },
      "tokenOfOwnerByIndex(address,uint256)": {
        "details": "See {IERC721Enumerable-tokenOfOwnerByIndex}."
      },
      "totalSupply()": {
        "details": "See {IERC721Enumerable-totalSupply}."
      },
      "transferFrom(address,address,uint256)": {
        "details": "See {IERC721-transferFrom}."
      },
      "transferOwnership(address)": {
        "details": "Transfers ownership of the contract to a new account (`newOwner`). Can only be called by the current owner."
      }
    },
    "version": 1
  },
  "userdoc": {
    "kind": "user",
    "methods": {
      "mint(address,string)": {
        "notice": "Mints tokens"
      },
      "supportsInterface(bytes4)": {
        "notice": "Informs callers that this contract supports ERC2981"
      }
    },
    "version": 1
  }
}