{
  "contractName": "saleAuction",
  "abi": [
    {
      "inputs": [
        {
          "internalType": "address",
          "name": "master",
          "type": "address"
        }
      ],
      "stateMutability": "nonpayable",
      "type": "constructor"
    },
    {
      "anonymous": false,
      "inputs": [
        {
          "indexed": true,
          "internalType": "address",
          "name": "_contract",
          "type": "address"
        },
        {
          "indexed": false,
          "internalType": "uint256",
          "name": "_tokenId",
          "type": "uint256"
        }
      ],
      "name": "CancelSale",
      "type": "event"
    },
    {
      "anonymous": false,
      "inputs": [
        {
          "indexed": true,
          "internalType": "address",
          "name": "_contract",
          "type": "address"
        },
        {
          "indexed": false,
          "internalType": "uint256",
          "name": "_tokenId",
          "type": "uint256"
        },
        {
          "indexed": true,
          "internalType": "address",
          "name": "solder",
          "type": "address"
        },
        {
          "indexed": true,
          "internalType": "address",
          "name": "buyer",
          "type": "address"
        },
        {
          "indexed": false,
          "internalType": "address",
          "name": "token",
          "type": "address"
        },
        {
          "indexed": false,
          "internalType": "uint256",
          "name": "_price",
          "type": "uint256"
        }
      ],
      "name": "ConfirmSale",
      "type": "event"
    },
    {
      "anonymous": false,
      "inputs": [
        {
          "indexed": true,
          "internalType": "address",
          "name": "_contract",
          "type": "address"
        },
        {
          "indexed": false,
          "internalType": "uint256",
          "name": "_tokenId",
          "type": "uint256"
        },
        {
          "indexed": false,
          "internalType": "address",
          "name": "seller",
          "type": "address"
        },
        {
          "indexed": false,
          "internalType": "address",
          "name": "token",
          "type": "address"
        },
        {
          "indexed": false,
          "internalType": "uint256",
          "name": "_price",
          "type": "uint256"
        },
        {
          "indexed": false,
          "internalType": "uint256",
          "name": "_due",
          "type": "uint256"
        }
      ],
      "name": "CreateSale",
      "type": "event"
    },
    {
      "anonymous": false,
      "inputs": [
        {
          "indexed": true,
          "internalType": "address",
          "name": "_contract",
          "type": "address"
        },
        {
          "indexed": false,
          "internalType": "uint256",
          "name": "_tokenId",
          "type": "uint256"
        },
        {
          "indexed": true,
          "internalType": "address",
          "name": "bidder",
          "type": "address"
        },
        {
          "indexed": false,
          "internalType": "address",
          "name": "token",
          "type": "address"
        },
        {
          "indexed": false,
          "internalType": "uint256",
          "name": "_price",
          "type": "uint256"
        }
      ],
      "name": "NewBid",
      "type": "event"
    },
    {
      "anonymous": false,
      "inputs": [
        {
          "indexed": true,
          "internalType": "address",
          "name": "_contract",
          "type": "address"
        },
        {
          "indexed": false,
          "internalType": "uint256",
          "name": "_tokenId",
          "type": "uint256"
        },
        {
          "indexed": false,
          "internalType": "address",
          "name": "seller",
          "type": "address"
        },
        {
          "indexed": false,
          "internalType": "address",
          "name": "token",
          "type": "address"
        },
        {
          "indexed": false,
          "internalType": "uint256",
          "name": "_price",
          "type": "uint256"
        },
        {
          "indexed": false,
          "internalType": "uint256",
          "name": "_due",
          "type": "uint256"
        }
      ],
      "name": "UpdateSale",
      "type": "event"
    },
    {
      "inputs": [],
      "name": "masterAddress",
      "outputs": [
        {
          "internalType": "address",
          "name": "",
          "type": "address"
        }
      ],
      "stateMutability": "view",
      "type": "function"
    },
    {
      "inputs": [
        {
          "internalType": "address",
          "name": "_contract",
          "type": "address"
        },
        {
          "internalType": "uint256",
          "name": "_tokenId",
          "type": "uint256"
        },
        {
          "internalType": "address",
          "name": "seller",
          "type": "address"
        },
        {
          "internalType": "address",
          "name": "_token",
          "type": "address"
        },
        {
          "internalType": "uint256",
          "name": "_price",
          "type": "uint256"
        },
        {
          "internalType": "uint256",
          "name": "_duration",
          "type": "uint256"
        }
      ],
      "name": "create",
      "outputs": [
        {
          "internalType": "uint256",
          "name": "record",
          "type": "uint256"
        }
      ],
      "stateMutability": "nonpayable",
      "type": "function"
    },
    {
      "inputs": [
        {
          "internalType": "uint256",
          "name": "_saleId",
          "type": "uint256"
        }
      ],
      "name": "cancel",
      "outputs": [],
      "stateMutability": "nonpayable",
      "type": "function"
    },
    {
      "inputs": [
        {
          "internalType": "uint256",
          "name": "_saleId",
          "type": "uint256"
        },
        {
          "internalType": "address",
          "name": "_token",
          "type": "address"
        },
        {
          "internalType": "uint256",
          "name": "_price",
          "type": "uint256"
        }
      ],
      "name": "updatePrice",
      "outputs": [],
      "stateMutability": "nonpayable",
      "type": "function"
    },
    {
      "inputs": [
        {
          "internalType": "uint256",
          "name": "_saleId",
          "type": "uint256"
        },
        {
          "internalType": "uint256",
          "name": "_duration",
          "type": "uint256"
        }
      ],
      "name": "updateDuration",
      "outputs": [],
      "stateMutability": "nonpayable",
      "type": "function"
    },
    {
      "inputs": [
        {
          "internalType": "uint256",
          "name": "_saleId",
          "type": "uint256"
        }
      ],
      "name": "bidWithValue",
      "outputs": [],
      "stateMutability": "payable",
      "type": "function"
    },
    {
      "inputs": [
        {
          "internalType": "uint256",
          "name": "_saleId",
          "type": "uint256"
        },
        {
          "internalType": "uint256",
          "name": "_amount",
          "type": "uint256"
        }
      ],
      "name": "bidWithToken",
      "outputs": [],
      "stateMutability": "nonpayable",
      "type": "function"
    },
    {
      "inputs": [
        {
          "internalType": "uint256",
          "name": "_saleId",
          "type": "uint256"
        }
      ],
      "name": "claim",
      "outputs": [],
      "stateMutability": "nonpayable",
      "type": "function"
    },
    {
      "inputs": [
        {
          "internalType": "uint256",
          "name": "_saleId",
          "type": "uint256"
        },
        {
          "internalType": "address",
          "name": "_claimer",
          "type": "address"
        }
      ],
      "name": "claimable",
      "outputs": [
        {
          "internalType": "bool",
          "name": "",
          "type": "bool"
        }
      ],
      "stateMutability": "view",
      "type": "function"
    },
    {
      "inputs": [
        {
          "internalType": "address",
          "name": "_contract",
          "type": "address"
        },
        {
          "internalType": "uint256",
          "name": "_tokenId",
          "type": "uint256"
        }
      ],
      "name": "getSaleId",
      "outputs": [
        {
          "internalType": "uint256",
          "name": "_saleId",
          "type": "uint256"
        }
      ],
      "stateMutability": "pure",
      "type": "function"
    },
    {
      "inputs": [
        {
          "internalType": "address",
          "name": "_contract",
          "type": "address"
        },
        {
          "internalType": "uint256",
          "name": "_tokenId",
          "type": "uint256"
        }
      ],
      "name": "getSaleInfo",
      "outputs": [
        {
          "internalType": "bool",
          "name": "",
          "type": "bool"
        },
        {
          "internalType": "address",
          "name": "",
          "type": "address"
        },
        {
          "internalType": "uint256",
          "name": "",
          "type": "uint256"
        },
        {
          "internalType": "uint256",
          "name": "",
          "type": "uint256"
        },
        {
          "internalType": "address",
          "name": "",
          "type": "address"
        },
        {
          "internalType": "address",
          "name": "",
          "type": "address"
        }
      ],
      "stateMutability": "view",
      "type": "function"
    },
    {
      "inputs": [
        {
          "internalType": "uint256",
          "name": "_saleId",
          "type": "uint256"
        }
      ],
      "name": "getSaleInfo",
      "outputs": [
        {
          "internalType": "bool",
          "name": "_isOpen",
          "type": "bool"
        },
        {
          "internalType": "address",
          "name": "_token",
          "type": "address"
        },
        {
          "internalType": "uint256",
          "name": "_price",
          "type": "uint256"
        },
        {
          "internalType": "uint256",
          "name": "_due",
          "type": "uint256"
        },
        {
          "internalType": "address",
          "name": "_seller",
          "type": "address"
        },
        {
          "internalType": "address",
          "name": "_bidder",
          "type": "address"
        }
      ],
      "stateMutability": "view",
      "type": "function"
    },
    {
      "inputs": [
        {
          "internalType": "address",
          "name": "",
          "type": "address"
        },
        {
          "internalType": "address",
          "name": "",
          "type": "address"
        },
        {
          "internalType": "uint256",
          "name": "",
          "type": "uint256"
        },
        {
          "internalType": "bytes",
          "name": "",
          "type": "bytes"
        }
      ],
      "name": "onERC721Received",
      "outputs": [
        {
          "internalType": "bytes4",
          "name": "",
          "type": "bytes4"
        }
      ],
      "stateMutability": "nonpayable",
      "type": "function"
    }
  ],
  "bytecode": "0x608060405234801561001057600080fd5b50604051611fc1380380611fc183398101604081905261002f91610054565b600180546001600160a01b0319166001600160a01b0392909216919091179055610084565b60006020828403121561006657600080fd5b81516001600160a01b038116811461007d57600080fd5b9392505050565b611f2e806100936000396000f3fe6080604052600436106100c25760003560e01c80633969e1ae1161007f5780638ff05a2a116100595780638ff05a2a146102af578063a0c7f71c146102cf578063d365a08e146102ff578063faa21b111461033757600080fd5b80633969e1ae146101fc57806340e58ee51461021c57806364b3b8441461023c57600080fd5b8063087db5b8146100c75780630f0a1b9e14610128578063150b7a021461014a5780632ad1f1db1461018e578063370b0081146101ae578063379607f5146101dc575b600080fd5b3480156100d357600080fd5b506100e76100e2366004611be7565b61034a565b6040805196151587526001600160a01b0395861660208801528601939093526060850191909152821660808401521660a082015260c0015b60405180910390f35b34801561013457600080fd5b50610148610143366004611d2a565b610375565b005b34801561015657600080fd5b50610175610165366004611b08565b630a85bd0160e11b949350505050565b6040516001600160e01b0319909116815260200161011f565b34801561019a57600080fd5b506101486101a9366004611d62565b61055e565b3480156101ba57600080fd5b506101ce6101c9366004611c41565b6106a3565b60405190815260200161011f565b3480156101e857600080fd5b506101486101f7366004611cc8565b610938565b34801561020857600080fd5b506101ce610217366004611be7565b6110c1565b34801561022857600080fd5b50610148610237366004611cc8565b6110d4565b34801561024857600080fd5b506100e7610257366004611cc8565b6000908152602081905260409020600181015460028201548254600390930154426001600160401b03600160801b840416908111956001600160a01b03948516956001600160801b0390941694919382169290911690565b3480156102bb57600080fd5b506101486102ca366004611d62565b6112ab565b3480156102db57600080fd5b506102ef6102ea366004611cfa565b6116fe565b604051901515815260200161011f565b34801561030b57600080fd5b5060015461031f906001600160a01b031681565b6040516001600160a01b03909116815260200161011f565b610148610345366004611cc8565b611750565b60008060008060008061036061025789896110c1565b949d939c50919a509850965090945092505050565b600083815260208190526040902054606084901c906001600160601b038516906001600160a01b031633146103c55760405162461bcd60e51b81526004016103bc90611dd4565b60405180910390fd5b600154604051630e70619560e41b81526001600160a01b0386811660048301529091169063e70619509060240160206040518083038186803b15801561040a57600080fd5b505afa15801561041e573d6000803e3d6000fd5b505050506040513d601f19601f820116820180604052508101906104429190611ca6565b61047c5760405162461bcd60e51b815260206004820152600b60248201526a2bb937b733902a37b5b2b760a91b60448201526064016103bc565b6000858152602081905260409020600301546001600160a01b0316156104b45760405162461bcd60e51b81526004016103bc90611d84565b600085815260208190526040908190206001810180546001600160a01b0319166001600160a01b03888116918217909255600290920180546001600160801b0319166001600160801b038816908117918290559351918616937ffe8937da95814c69018f7a05dcec87068d26502ab6dabf6516ea314dc1dca32b9361054f938793339391600160801b9091046001600160401b031690611e04565b60405180910390a25050505050565b600082815260208190526040902054606083901c906001600160601b038416906001600160a01b031633146105a55760405162461bcd60e51b81526004016103bc90611dd4565b60006105b14285611e44565b90506001600160401b038111156105cc57506001600160401b035b6000858152602081905260409020600301546001600160a01b0316156106045760405162461bcd60e51b81526004016103bc90611d84565b600085815260208190526040908190206002810180546001600160401b03808616600160801b90810267ffffffffffffffff60801b19841681179485905560019095015495516001600160a01b03808b16977ffe8937da95814c69018f7a05dcec87068d26502ab6dabf6516ea314dc1dca32b9761054f978c97339793909416956001600160801b039283169290941691909117939290041690611e04565b6040516331a9108f60e11b81526004810186905260009030906001600160a01b03891690636352211e9060240160206040518083038186803b1580156106e857600080fd5b505afa1580156106fc573d6000803e3d6000fd5b505050506040513d601f19601f820116820180604052508101906107209190611aeb565b6001600160a01b03161461073357600080fd5b600061073f4284611e44565b90506001600160401b0381111561075a57506001600160401b035b836001600160801b031684146107a35760405162461bcd60e51b815260206004820152600e60248201526d5072696365206f766572666c6f7760901b60448201526064016103bc565b6107ad8888611ab7565b6040805160a0810182526001600160a01b0389811680835289821660208085019182526001600160801b038b81168688019081526001600160401b038a811660608901908152600060808a018181528c8252958190528a9020985189549089166001600160a01b0319918216178a5595516001808b018054928b1692891692909217909155925160028a0180549251909316600160801b026001600160c01b03199092169416939093179290921790915590516003909501805495851695909216949094179055915492516308d3fed360e01b81526004810185905260248101929092529294509116906308d3fed390604401600060405180830381600087803b1580156108ba57600080fd5b505af11580156108ce573d6000803e3d6000fd5b5050604080518a81526001600160a01b038a811660208301528981168284015260608201899052608082018690529151918c1693507e8f298a385d495e86787887da324d1603491ea0ea157acffd6c5851d6ddfa2f925081900360a00190a2509695505050505050565b606081901c6001600160601b03821661095183336116fe565b61098c5760405162461bcd60e51b815260206004820152600c60248201526b43616e6e6f7420636c61696d60a01b60448201526064016103bc565b60008381526020819052604080822060020154905163152a902d60e11b8152600481018490526001600160801b0390911660248201819052919081906001600160a01b03861690632a55205a90604401604080518083038186803b1580156109f357600080fd5b505afa158015610a07573d6000803e3d6000fd5b505050506040513d601f19601f82011682018060405250810190610a2b9190611c13565b91509150600061271084600160009054906101000a90046001600160a01b03166001600160a01b0316630e716d976040518163ffffffff1660e01b815260040160206040518083038186803b158015610a8357600080fd5b505afa158015610a97573d6000803e3d6000fd5b505050506040513d601f19601f82011682018060405250810190610abb9190611ce1565b610ac59190611e7e565b610acf9190611e5c565b6000888152602081905260409020600101549091506001600160a01b0316610c4557600160009054906101000a90046001600160a01b03166001600160a01b031663c415b95c6040518163ffffffff1660e01b815260040160206040518083038186803b158015610b3f57600080fd5b505afa158015610b53573d6000803e3d6000fd5b505050506040513d601f19601f82011682018060405250810190610b779190611aeb565b6001600160a01b03166108fc829081150290604051600060405180830381858888f19350505050158015610baf573d6000803e3d6000fd5b506040516001600160a01b0384169083156108fc029084906000818181858888f19350505050158015610be6573d6000803e3d6000fd5b506000878152602081905260409020546001600160a01b03166108fc83610c0d8488611e9d565b610c179190611e9d565b6040518115909202916000818181858888f19350505050158015610c3f573d6000803e3d6000fd5b50610eb0565b60008781526020818152604091829020600190810154905483516331056e5760e21b815293516001600160a01b039283169463a9059cbb94939092169263c415b95c9260048082019391829003018186803b158015610ca357600080fd5b505afa158015610cb7573d6000803e3d6000fd5b505050506040513d601f19601f82011682018060405250810190610cdb9190611aeb565b6040516001600160e01b031960e084901b1681526001600160a01b03909116600482015260248101849052604401602060405180830381600087803b158015610d2357600080fd5b505af1158015610d37573d6000803e3d6000fd5b505050506040513d601f19601f82011682018060405250810190610d5b9190611ca6565b506000878152602081905260409081902060010154905163a9059cbb60e01b81526001600160a01b038581166004830152602482018590529091169063a9059cbb90604401602060405180830381600087803b158015610dba57600080fd5b505af1158015610dce573d6000803e3d6000fd5b505050506040513d601f19601f82011682018060405250810190610df29190611ca6565b506000878152602081905260409020600181015490546001600160a01b039182169163a9059cbb911684610e268589611e9d565b610e309190611e9d565b6040516001600160e01b031960e085901b1681526001600160a01b0390921660048301526024820152604401602060405180830381600087803b158015610e7657600080fd5b505af1158015610e8a573d6000803e3d6000fd5b505050506040513d601f19601f82011682018060405250810190610eae9190611ca6565b505b6040516323b872dd60e01b8152306004820152336024820152604481018690526001600160a01b038716906323b872dd90606401600060405180830381600087803b158015610efe57600080fd5b505af1158015610f12573d6000803e3d6000fd5b505060015460405163337f793960e21b8152600481018b90523360248201526001600160a01b03909116925063cdfde4e49150604401600060405180830381600087803b158015610f6257600080fd5b505af1158015610f76573d6000803e3d6000fd5b50506001805460008b81526020819052604090819020805493015490516346eb67ef60e01b8152600481018d90526001600160a01b039384166024820152336044820152908316606482015260848101899052911692506346eb67ef915060a401600060405180830381600087803b158015610ff157600080fd5b505af1158015611005573d6000803e3d6000fd5b50505060008881526020818152604091829020805460019091015483518a81526001600160a01b03918216938101939093529282018890523393508216918916907f8484265a68fd7cea22f85d6a338d7534f34ae4ff7d204bfa9faaec9e9e696ba39060600160405180910390a4505050600093845250505060208190526040902080546001600160a01b03199081168255600182018054821690556002820180546001600160c01b0319169055600390910180549091169055565b60006110cd8383611ab7565b9392505050565b600081815260208190526040902054606082901c906001600160601b038316906001600160a01b0316331461111b5760405162461bcd60e51b81526004016103bc90611dd4565b6000838152602081905260409020600301546001600160a01b0316156111535760405162461bcd60e51b81526004016103bc90611d84565b6000838152602081905260409081902080546001600160a01b03199081168255600182018054821690556002820180546001600160c01b0319169055600390910180549091169055516323b872dd60e01b8152306004820152336024820152604481018290526001600160a01b038316906323b872dd90606401600060405180830381600087803b1580156111e757600080fd5b505af11580156111fb573d6000803e3d6000fd5b5050600154604051632084212160e11b8152600481018790523360248201526001600160a01b03909116925063410842429150604401600060405180830381600087803b15801561124b57600080fd5b505af115801561125f573d6000803e3d6000fd5b50505050816001600160a01b03167f8b0a052bd72fec557d5735593db719bcb565d7afec8d76ee165e317e8cc984098260405161129e91815260200190565b60405180910390a2505050565b600082815260208190526040902060020154606083901c906001600160601b0384169042600160801b9091046001600160401b03161161131c5760405162461bcd60e51b815260206004820152600c60248201526b496e76616c69642073616c6560a01b60448201526064016103bc565b6000848152602081905260409020600101546001600160a01b03166113735760405162461bcd60e51b815260206004820152600d60248201526c15dc9bdb99c81c185e5b595b9d609a1b60448201526064016103bc565b6000848152602081905260409020600301546001600160a01b0316156113d1576000848152602081905260409020600201546001600160801b031683116113cc5760405162461bcd60e51b81526004016103bc90611da6565b61140b565b6000848152602081905260409020600201546001600160801b031683101561140b5760405162461bcd60e51b81526004016103bc90611da6565b600084815260208190526040908190206001015490516323b872dd60e01b8152336004820152306024820152604481018590526001600160a01b03909116906323b872dd90606401602060405180830381600087803b15801561146d57600080fd5b505af1158015611481573d6000803e3d6000fd5b505050506040513d601f19601f820116820180604052508101906114a59190611ca6565b506000848152602081905260409020600301546001600160a01b0316156115e9576000848152602081905260409081902060018101546003820154600290920154925163a9059cbb60e01b81526001600160a01b0392831660048201526001600160801b039093166024840152169063a9059cbb90604401602060405180830381600087803b15801561153757600080fd5b505af115801561154b573d6000803e3d6000fd5b505050506040513d601f19601f8201168201806040525081019061156f9190611ca6565b506001546000858152602081905260409081902060030154905163337f793960e21b8152600481018790526001600160a01b03918216602482015291169063cdfde4e490604401600060405180830381600087803b1580156115d057600080fd5b505af11580156115e4573d6000803e3d6000fd5b505050505b60008481526020819052604090819020600381018054336001600160a01b03199091168117909155600290910180546001600160801b0319166001600160801b03871617905560015491516317f7559b60e11b81526004810187905260248101919091526001600160a01b0390911690632feeab3690604401600060405180830381600087803b15801561167c57600080fd5b505af1158015611690573d6000803e3d6000fd5b505050600085815260208181526040918290206001015482518581526001600160a01b0391821692810192909252918101869052339250908416907f3a62da8721790771856162caef0b31ff0c28626c1a7bcd82ed8a6a2a6b0009a29060600160405180910390a350505050565b60008281526020819052604081206002015442600160801b9091046001600160401b0316118015906110cd575050600091825260208290526040909120600301546001600160a01b0391821691161490565b600081815260208190526040902060020154606082901c906001600160601b0383169042600160801b9091046001600160401b0316116117c15760405162461bcd60e51b815260206004820152600c60248201526b496e76616c69642073616c6560a01b60448201526064016103bc565b6000838152602081905260409020600101546001600160a01b0316156118195760405162461bcd60e51b815260206004820152600d60248201526c15dc9bdb99c81c185e5b595b9d609a1b60448201526064016103bc565b6000838152602081905260409020600301546001600160a01b031615611877576000838152602081905260409020600201546001600160801b031634116118725760405162461bcd60e51b81526004016103bc90611da6565b6118b1565b6000838152602081905260409020600201546001600160801b03163410156118b15760405162461bcd60e51b81526004016103bc90611da6565b6000838152602081905260409020600301546001600160a01b0316156119a557600083815260208190526040808220600381015460029091015491516001600160a01b03909116926001600160801b0390921680156108fc0292909190818181858888f1935050505015801561192b573d6000803e3d6000fd5b506001546000848152602081905260409081902060030154905163337f793960e21b8152600481018690526001600160a01b03918216602482015291169063cdfde4e490604401600060405180830381600087803b15801561198c57600080fd5b505af11580156119a0573d6000803e3d6000fd5b505050505b60008381526020819052604090819020600381018054336001600160a01b03199091168117909155600290910180546001600160801b031916346001600160801b031617905560015491516317f7559b60e11b81526004810186905260248101919091526001600160a01b0390911690632feeab3690604401600060405180830381600087803b158015611a3857600080fd5b505af1158015611a4c573d6000803e3d6000fd5b505050600084815260208181526040918290206001015482518581526001600160a01b039182169281019290925234828401529151339350918516917f3a62da8721790771856162caef0b31ff0c28626c1a7bcd82ed8a6a2a6b0009a29181900360600190a3505050565b6000611ad66bffffffffffffffffffffffff19606085901b1682611e44565b90506110cd6001600160601b03831682611e44565b600060208284031215611afd57600080fd5b81516110cd81611ee0565b60008060008060808587031215611b1e57600080fd5b8435611b2981611ee0565b93506020850135611b3981611ee0565b92506040850135915060608501356001600160401b0380821115611b5c57600080fd5b818701915087601f830112611b7057600080fd5b813581811115611b8257611b82611eca565b604051601f8201601f19908116603f01168101908382118183101715611baa57611baa611eca565b816040528281528a6020848701011115611bc357600080fd5b82602086016020830137600060208483010152809550505050505092959194509250565b60008060408385031215611bfa57600080fd5b8235611c0581611ee0565b946020939093013593505050565b60008060408385031215611c2657600080fd5b8251611c3181611ee0565b6020939093015192949293505050565b60008060008060008060c08789031215611c5a57600080fd5b8635611c6581611ee0565b9550602087013594506040870135611c7c81611ee0565b93506060870135611c8c81611ee0565b9598949750929560808101359460a0909101359350915050565b600060208284031215611cb857600080fd5b815180151581146110cd57600080fd5b600060208284031215611cda57600080fd5b5035919050565b600060208284031215611cf357600080fd5b5051919050565b60008060408385031215611d0d57600080fd5b823591506020830135611d1f81611ee0565b809150509250929050565b600080600060608486031215611d3f57600080fd5b833592506020840135611d5181611ee0565b929592945050506040919091013590565b60008060408385031215611d7557600080fd5b50508035926020909101359150565b602080825260089082015267486173206269642160c01b604082015260600190565b602080825260149082015273125b9cdd59999a58da595b9d081c185e5b595b9d60621b604082015260600190565b602080825260169082015275139bdd081bdddb995c881bdc881a5d195b481cdbdb1960521b604082015260600190565b9485526001600160a01b0393841660208601529190921660408401526001600160801b0390911660608301526001600160401b0316608082015260a00190565b60008219821115611e5757611e57611eb4565b500190565b600082611e7957634e487b7160e01b600052601260045260246000fd5b500490565b6000816000190483118215151615611e9857611e98611eb4565b500290565b600082821015611eaf57611eaf611eb4565b500390565b634e487b7160e01b600052601160045260246000fd5b634e487b7160e01b600052604160045260246000fd5b6001600160a01b0381168114611ef557600080fd5b5056fea2646970667358221220e14bc86969b042acba728f77aaf871e524766f41786e23f776f1d92b6fc5324864736f6c63430008070033",
  "immutableReferences": {},
  "source": "// SPDX-License-Identifier: Apache-2.0\r\npragma solidity ^0.8.0;\r\nimport '@openzeppelin/contracts/token/ERC721/IERC721.sol';\r\nimport \"@openzeppelin/contracts/token/ERC721/IERC721Receiver.sol\";\r\nimport '@openzeppelin/contracts/token/ERC20/IERC20.sol';\r\nimport './metaMaster.sol';\r\nimport './NFTInfoStorage.sol';\r\nimport './RecordPacker.sol';\r\nimport './NFTCollection.sol';\r\n\r\ncontract saleAuction is ISales, RecordPacker, IERC721Receiver{\r\n    struct saleAuctionItem {\r\n       address seller;\r\n       address token;\r\n       uint128 price;\r\n       uint64 duetime;\r\n       address bidder;\r\n    }\r\n\r\n    mapping (uint256 => saleAuctionItem) saleItems;\r\n\r\n    address public masterAddress;\r\n\r\n    constructor(address master){\r\n        masterAddress = master;\r\n    }\r\n\r\n    //Owner Interaction\r\n    function create(address _contract, uint _tokenId, address seller,\r\n        address _token, uint _price, uint _duration) external override returns (uint record){\r\n            //check\r\n            require(IERC721(_contract).ownerOf(_tokenId) == address(this));\r\n            uint _due = _duration + block.timestamp;\r\n            if (_due > type(uint64).max) _due = type(uint64).max;\r\n            require(_price == uint256(uint128(_price)), 'Price overflow');\r\n            //update\r\n            record = packRecord(_contract, uint96(_tokenId));\r\n            saleItems[record] = saleAuctionItem(seller, _token, uint128(_price), uint64(_due), address(0));\r\n            //record\r\n            NFTInfoStorage(masterAddress).recordNewItem(record, seller);\r\n            emit CreateSale(_contract, _tokenId, seller, _token, _price, _due);\r\n        }\r\n\r\n    function cancel(uint _saleId) external override{\r\n        (address _contract, uint _tokenId) = resovleRecord(_saleId);\r\n        //check\r\n        require(saleItems[_saleId].seller == msg.sender , 'Not owner or item sold');\r\n        require(saleItems[_saleId].bidder == address(0) , 'Has bid!');\r\n        //update\r\n        delete saleItems[_saleId];\r\n        IERC721(_contract).transferFrom(address(this), msg.sender, _tokenId);\r\n        //record\r\n        NFTInfoStorage(masterAddress).recordItemCancel(_saleId, msg.sender);\r\n        emit CancelSale(_contract, _tokenId);\r\n    }\r\n\r\n    function updatePrice(uint _saleId, address _token, uint _price) external override{\r\n        (address _contract, uint _tokenId) = resovleRecord(_saleId);\r\n        //check\r\n        require(saleItems[_saleId].seller == msg.sender , 'Not owner or item sold');\r\n        require(metaMaster(masterAddress).tokenIsSupported(_token), 'Wrong Token');\r\n        require(saleItems[_saleId].bidder == address(0) , 'Has bid!');\r\n        //update\r\n        saleItems[_saleId].token = _token;\r\n        saleItems[_saleId].price = uint128(_price);\r\n        //record\r\n        emit UpdateSale(_contract, _tokenId, msg.sender,\r\n            saleItems[_saleId].token, saleItems[_saleId].price, saleItems[_saleId].duetime);\r\n    }\r\n\r\n    function updateDuration(uint _saleId, uint _duration) external override{\r\n        (address _contract, uint _tokenId) = resovleRecord(_saleId);\r\n        //check\r\n        require(saleItems[_saleId].seller == msg.sender , 'Not owner or item sold');\r\n        uint _due = _duration + block.timestamp;\r\n        if (_due > type(uint64).max) _due = type(uint64).max;\r\n        require(saleItems[_saleId].bidder == address(0) , 'Has bid!');\r\n        //update\r\n        saleItems[_saleId].duetime = uint64(_due);\r\n        //record\r\n        emit UpdateSale(_contract, _tokenId, msg.sender,\r\n            saleItems[_saleId].token, saleItems[_saleId].price, saleItems[_saleId].duetime);\r\n    }\r\n\r\n    //Customer Interaction\r\n    function bidWithValue(uint _saleId) external override payable{\r\n        (address _contract, uint _tokenId) = resovleRecord(_saleId);\r\n        //check\r\n        require(saleItems[_saleId].duetime > block.timestamp, 'Invalid sale');\r\n        require(saleItems[_saleId].token == address(0), 'Wrong payment');\r\n        if (saleItems[_saleId].bidder != address(0)){\r\n            require(msg.value > saleItems[_saleId].price, 'Insufficient payment');\r\n        } else {\r\n            require(msg.value >= saleItems[_saleId].price, 'Insufficient payment');\r\n        }\r\n        //handle payment\r\n        msg.value;\r\n        //remove previous bid\r\n        if (saleItems[_saleId].bidder != address(0)){\r\n            payable(saleItems[_saleId].bidder).transfer(saleItems[_saleId].price);\r\n            NFTInfoStorage(masterAddress).recordDelBid(_saleId, saleItems[_saleId].bidder);\r\n        }\r\n        //place bid\r\n        saleItems[_saleId].bidder = msg.sender;\r\n        saleItems[_saleId].price = uint128(msg.value);\r\n        //record\r\n        NFTInfoStorage(masterAddress).recordNewBid(_saleId, msg.sender);\r\n        emit NewBid(_contract, _tokenId, msg.sender, saleItems[_saleId].token, msg.value);\r\n    }\r\n\r\n    function bidWithToken(uint _saleId, uint _amount) external override{\r\n        (address _contract, uint _tokenId) = resovleRecord(_saleId);\r\n        //check\r\n        require(saleItems[_saleId].duetime > block.timestamp, 'Invalid sale');\r\n        require(saleItems[_saleId].token != address(0), 'Wrong payment');\r\n        if (saleItems[_saleId].bidder != address(0)){\r\n            require(_amount > saleItems[_saleId].price, 'Insufficient payment');\r\n        } else {\r\n            require(_amount >= saleItems[_saleId].price, 'Insufficient payment');\r\n        }\r\n        //handle payment\r\n        IERC20(saleItems[_saleId].token).transferFrom(msg.sender, address(this), _amount);\r\n        //remove previous bid\r\n        if (saleItems[_saleId].bidder != address(0)){\r\n            IERC20(saleItems[_saleId].token).transfer(saleItems[_saleId].bidder, saleItems[_saleId].price);\r\n            NFTInfoStorage(masterAddress).recordDelBid(_saleId, saleItems[_saleId].bidder);\r\n        }\r\n        //place bid\r\n        saleItems[_saleId].bidder = msg.sender;\r\n        saleItems[_saleId].price = uint128(_amount);\r\n        //record\r\n        NFTInfoStorage(masterAddress).recordNewBid(_saleId, msg.sender);\r\n        emit NewBid(_contract, _tokenId, msg.sender, saleItems[_saleId].token, _amount);\r\n    }\r\n\r\n    function claim(uint _saleId) external override{\r\n        //check\r\n        (address _contract, uint _tokenId) = resovleRecord(_saleId);\r\n        require(claimable(_saleId, msg.sender), 'Cannot claim');\r\n        //handle payment\r\n        uint _amount = saleItems[_saleId].price;\r\n        (address royaltiesReceiver, uint royalties) = NFTCollection(_contract).royaltyInfo(_tokenId, _amount);\r\n        uint fee = metaMaster(masterAddress).feeInBips() * _amount / 10000;\r\n        if (saleItems[_saleId].token == address(0)){\r\n            payable(metaMaster(masterAddress).feeCollector()).transfer(fee);\r\n            payable(royaltiesReceiver).transfer(royalties);\r\n            payable(saleItems[_saleId].seller).transfer(_amount - fee - royalties);\r\n        } else {\r\n            IERC20(saleItems[_saleId].token).transfer(metaMaster(masterAddress).feeCollector(), fee);\r\n            IERC20(saleItems[_saleId].token).transfer(royaltiesReceiver, royalties);\r\n            IERC20(saleItems[_saleId].token).transfer(saleItems[_saleId].seller, _amount-fee-royalties);\r\n        }\r\n        //delivery item\r\n        IERC721(_contract).transferFrom(address(this), msg.sender, _tokenId);\r\n        //record\r\n        NFTInfoStorage(masterAddress).recordDelBid(_saleId, msg.sender);\r\n        NFTInfoStorage(masterAddress).recordItemSold(_saleId, saleItems[_saleId].seller, msg.sender,\r\n            saleItems[_saleId].token, _amount);\r\n        emit ConfirmSale(_contract, _tokenId, saleItems[_saleId].seller, msg.sender,\r\n            saleItems[_saleId].token, _amount);\r\n        //update\r\n        delete saleItems[_saleId];\r\n    }\r\n\r\n    function claimable(uint _saleId, address _claimer) public override view returns (bool){\r\n        return saleItems[_saleId].duetime <= block.timestamp && saleItems[_saleId].bidder == _claimer;\r\n    }\r\n\r\n    //Views\r\n    function getSaleId(address _contract, uint _tokenId) public override pure returns (uint _saleId){\r\n        return packRecord(_contract, uint96(_tokenId));\r\n    }\r\n\r\n    function getSaleInfo(uint _saleId) public override view returns (bool _isOpen, address _token,\r\n         uint _price, uint _due, address _seller, address _bidder){\r\n        _token = saleItems[_saleId].token;\r\n        _price = saleItems[_saleId].price;\r\n        _due = saleItems[_saleId].duetime;\r\n        _seller = saleItems[_saleId].seller;\r\n        _isOpen = _due > block.timestamp;\r\n        _bidder = saleItems[_saleId].bidder;\r\n    }\r\n\r\n    function getSaleInfo(address _contract, uint _tokenId) public override view\r\n    returns (bool, address, uint, uint, address, address){\r\n        return getSaleInfo(getSaleId(_contract, _tokenId));\r\n    }\r\n\r\n    function onERC721Received(\r\n        address,\r\n        address,\r\n        uint256,\r\n        bytes memory\r\n    ) public virtual override returns (bytes4) {\r\n        return this.onERC721Received.selector;\r\n    }\r\n}\r\n",
  "sourcePath": "E:\\\\metaLifeProtocol\\contracts\\saleAuction.sol",
  "compiler": {
    "name": "solc",
    "version": "0.8.7+commit.e28d00a7.Emscripten.clang"
  },
  "schemaVersion": "3.4.7",
  "updatedAt": "2022-07-20T15:04:49.404Z",
  "devdoc": {
    "kind": "dev",
    "methods": {},
    "version": 1
  },
  "userdoc": {
    "kind": "user",
    "methods": {},
    "version": 1
  }
}