{
    "contractName": "salePlain",
    "abi": [
        {
            "inputs": [
                {
                    "internalType": "address",
                    "name": "master",
                    "type": "address"
                }
            ],
            "stateMutability": "nonpayable",
            "type": "constructor"
        },
        {
            "anonymous": false,
            "inputs": [
                {
                    "indexed": true,
                    "internalType": "address",
                    "name": "_contract",
                    "type": "address"
                },
                {
                    "indexed": false,
                    "internalType": "uint256",
                    "name": "_tokenId",
                    "type": "uint256"
                }
            ],
            "name": "CancelSale",
            "type": "event"
        },
        {
            "anonymous": false,
            "inputs": [
                {
                    "indexed": true,
                    "internalType": "address",
                    "name": "_contract",
                    "type": "address"
                },
                {
                    "indexed": false,
                    "internalType": "uint256",
                    "name": "_tokenId",
                    "type": "uint256"
                },
                {
                    "indexed": true,
                    "internalType": "address",
                    "name": "solder",
                    "type": "address"
                },
                {
                    "indexed": true,
                    "internalType": "address",
                    "name": "buyer",
                    "type": "address"
                },
                {
                    "indexed": false,
                    "internalType": "address",
                    "name": "token",
                    "type": "address"
                },
                {
                    "indexed": false,
                    "internalType": "uint256",
                    "name": "_price",
                    "type": "uint256"
                }
            ],
            "name": "ConfirmSale",
            "type": "event"
        },
        {
            "anonymous": false,
            "inputs": [
                {
                    "indexed": true,
                    "internalType": "address",
                    "name": "_contract",
                    "type": "address"
                },
                {
                    "indexed": false,
                    "internalType": "uint256",
                    "name": "_tokenId",
                    "type": "uint256"
                },
                {
                    "indexed": false,
                    "internalType": "address",
                    "name": "seller",
                    "type": "address"
                },
                {
                    "indexed": false,
                    "internalType": "address",
                    "name": "token",
                    "type": "address"
                },
                {
                    "indexed": false,
                    "internalType": "uint256",
                    "name": "_price",
                    "type": "uint256"
                },
                {
                    "indexed": false,
                    "internalType": "uint256",
                    "name": "_due",
                    "type": "uint256"
                }
            ],
            "name": "CreateSale",
            "type": "event"
        },
        {
            "anonymous": false,
            "inputs": [
                {
                    "indexed": true,
                    "internalType": "address",
                    "name": "_contract",
                    "type": "address"
                },
                {
                    "indexed": false,
                    "internalType": "uint256",
                    "name": "_tokenId",
                    "type": "uint256"
                },
                {
                    "indexed": true,
                    "internalType": "address",
                    "name": "bidder",
                    "type": "address"
                },
                {
                    "indexed": false,
                    "internalType": "address",
                    "name": "token",
                    "type": "address"
                },
                {
                    "indexed": false,
                    "internalType": "uint256",
                    "name": "_price",
                    "type": "uint256"
                }
            ],
            "name": "NewBid",
            "type": "event"
        },
        {
            "anonymous": false,
            "inputs": [
                {
                    "indexed": true,
                    "internalType": "address",
                    "name": "_contract",
                    "type": "address"
                },
                {
                    "indexed": false,
                    "internalType": "uint256",
                    "name": "_tokenId",
                    "type": "uint256"
                },
                {
                    "indexed": false,
                    "internalType": "address",
                    "name": "seller",
                    "type": "address"
                },
                {
                    "indexed": false,
                    "internalType": "address",
                    "name": "token",
                    "type": "address"
                },
                {
                    "indexed": false,
                    "internalType": "uint256",
                    "name": "_price",
                    "type": "uint256"
                },
                {
                    "indexed": false,
                    "internalType": "uint256",
                    "name": "_due",
                    "type": "uint256"
                }
            ],
            "name": "UpdateSale",
            "type": "event"
        },
        {
            "inputs": [],
            "name": "masterAddress",
            "outputs": [
                {
                    "internalType": "address",
                    "name": "",
                    "type": "address"
                }
            ],
            "stateMutability": "view",
            "type": "function"
        },
        {
            "inputs": [
                {
                    "internalType": "address",
                    "name": "_contract",
                    "type": "address"
                },
                {
                    "internalType": "uint256",
                    "name": "_tokenId",
                    "type": "uint256"
                },
                {
                    "internalType": "address",
                    "name": "seller",
                    "type": "address"
                },
                {
                    "internalType": "address",
                    "name": "_token",
                    "type": "address"
                },
                {
                    "internalType": "uint256",
                    "name": "_price",
                    "type": "uint256"
                },
                {
                    "internalType": "uint256",
                    "name": "_duration",
                    "type": "uint256"
                }
            ],
            "name": "create",
            "outputs": [
                {
                    "internalType": "uint256",
                    "name": "record",
                    "type": "uint256"
                }
            ],
            "stateMutability": "nonpayable",
            "type": "function"
        },
        {
            "inputs": [
                {
                    "internalType": "uint256",
                    "name": "_saleId",
                    "type": "uint256"
                }
            ],
            "name": "cancel",
            "outputs": [],
            "stateMutability": "nonpayable",
            "type": "function"
        },
        {
            "inputs": [
                {
                    "internalType": "uint256",
                    "name": "_saleId",
                    "type": "uint256"
                },
                {
                    "internalType": "address",
                    "name": "_token",
                    "type": "address"
                },
                {
                    "internalType": "uint256",
                    "name": "_price",
                    "type": "uint256"
                }
            ],
            "name": "updatePrice",
            "outputs": [],
            "stateMutability": "nonpayable",
            "type": "function"
        },
        {
            "inputs": [
                {
                    "internalType": "uint256",
                    "name": "_saleId",
                    "type": "uint256"
                },
                {
                    "internalType": "uint256",
                    "name": "_duration",
                    "type": "uint256"
                }
            ],
            "name": "updateDuration",
            "outputs": [],
            "stateMutability": "nonpayable",
            "type": "function"
        },
        {
            "inputs": [
                {
                    "internalType": "uint256",
                    "name": "_saleId",
                    "type": "uint256"
                }
            ],
            "name": "bidWithValue",
            "outputs": [],
            "stateMutability": "payable",
            "type": "function"
        },
        {
            "inputs": [
                {
                    "internalType": "uint256",
                    "name": "_saleId",
                    "type": "uint256"
                },
                {
                    "internalType": "uint256",
                    "name": "_amount",
                    "type": "uint256"
                }
            ],
            "name": "bidWithToken",
            "outputs": [],
            "stateMutability": "nonpayable",
            "type": "function"
        },
        {
            "inputs": [
                {
                    "internalType": "uint256",
                    "name": "_saleId",
                    "type": "uint256"
                }
            ],
            "name": "claim",
            "outputs": [],
            "stateMutability": "pure",
            "type": "function"
        },
        {
            "inputs": [
                {
                    "internalType": "uint256",
                    "name": "_saleId",
                    "type": "uint256"
                },
                {
                    "internalType": "address",
                    "name": "_claimer",
                    "type": "address"
                }
            ],
            "name": "claimable",
            "outputs": [
                {
                    "internalType": "bool",
                    "name": "",
                    "type": "bool"
                }
            ],
            "stateMutability": "pure",
            "type": "function"
        },
        {
            "inputs": [
                {
                    "internalType": "address",
                    "name": "_contract",
                    "type": "address"
                },
                {
                    "internalType": "uint256",
                    "name": "_tokenId",
                    "type": "uint256"
                }
            ],
            "name": "getSaleId",
            "outputs": [
                {
                    "internalType": "uint256",
                    "name": "_saleId",
                    "type": "uint256"
                }
            ],
            "stateMutability": "pure",
            "type": "function"
        },
        {
            "inputs": [
                {
                    "internalType": "address",
                    "name": "_contract",
                    "type": "address"
                },
                {
                    "internalType": "uint256",
                    "name": "_tokenId",
                    "type": "uint256"
                }
            ],
            "name": "getSaleInfo",
            "outputs": [
                {
                    "internalType": "bool",
                    "name": "",
                    "type": "bool"
                },
                {
                    "internalType": "address",
                    "name": "",
                    "type": "address"
                },
                {
                    "internalType": "uint256",
                    "name": "",
                    "type": "uint256"
                },
                {
                    "internalType": "uint256",
                    "name": "",
                    "type": "uint256"
                },
                {
                    "internalType": "address",
                    "name": "",
                    "type": "address"
                },
                {
                    "internalType": "address",
                    "name": "",
                    "type": "address"
                }
            ],
            "stateMutability": "view",
            "type": "function"
        },
        {
            "inputs": [
                {
                    "internalType": "uint256",
                    "name": "_saleId",
                    "type": "uint256"
                }
            ],
            "name": "getSaleInfo",
            "outputs": [
                {
                    "internalType": "bool",
                    "name": "_isOpen",
                    "type": "bool"
                },
                {
                    "internalType": "address",
                    "name": "_token",
                    "type": "address"
                },
                {
                    "internalType": "uint256",
                    "name": "_price",
                    "type": "uint256"
                },
                {
                    "internalType": "uint256",
                    "name": "_due",
                    "type": "uint256"
                },
                {
                    "internalType": "address",
                    "name": "_seller",
                    "type": "address"
                },
                {
                    "internalType": "address",
                    "name": "_bidder",
                    "type": "address"
                }
            ],
            "stateMutability": "view",
            "type": "function"
        },
        {
            "inputs": [
                {
                    "internalType": "address",
                    "name": "",
                    "type": "address"
                },
                {
                    "internalType": "address",
                    "name": "",
                    "type": "address"
                },
                {
                    "internalType": "uint256",
                    "name": "",
                    "type": "uint256"
                },
                {
                    "internalType": "bytes",
                    "name": "",
                    "type": "bytes"
                }
            ],
            "name": "onERC721Received",
            "outputs": [
                {
                    "internalType": "bytes4",
                    "name": "",
                    "type": "bytes4"
                }
            ],
            "stateMutability": "nonpayable",
            "type": "function"
        }
    ],
    "bytecode": "0x608060405234801561001057600080fd5b50604051611b6e380380611b6e83398101604081905261002f91610054565b600180546001600160a01b0319166001600160a01b0392909216919091179055610084565b60006020828403121561006657600080fd5b81516001600160a01b038116811461007d57600080fd5b9392505050565b611adb806100936000396000f3fe6080604052600436106100c25760003560e01c80633969e1ae1161007f5780638ff05a2a116100595780638ff05a2a146102a4578063a0c7f71c146102c4578063d365a08e146102f7578063faa21b111461032f57600080fd5b80633969e1ae146101fa57806340e58ee51461021a57806364b3b8441461023a57600080fd5b8063087db5b8146100c75780630f0a1b9e14610128578063150b7a021461014a5780632ad1f1db1461018e578063370b0081146101ae578063379607f5146101dc575b600080fd5b3480156100d357600080fd5b506100e76100e23660046117c3565b610342565b6040805196151587526001600160a01b0395861660208801528601939093526060850191909152821660808401521660a082015260c0015b60405180910390f35b34801561013457600080fd5b50610148610143366004611906565b61036d565b005b34801561015657600080fd5b506101756101653660046116e4565b630a85bd0160e11b949350505050565b6040516001600160e01b0319909116815260200161011f565b34801561019a57600080fd5b506101486101a936600461193e565b610527565b3480156101ba57600080fd5b506101ce6101c936600461181d565b610634565b60405190815260200161011f565b3480156101e857600080fd5b506101486101f73660046118a4565b50565b34801561020657600080fd5b506101ce6102153660046117c3565b6108bc565b34801561022657600080fd5b506101486102353660046118a4565b6108d8565b34801561024657600080fd5b506100e76102553660046118a4565b600090815260208190526040812060018101546002820154915442600160801b84046001600160401b0316908111956001600160a01b03938416956001600160801b0390951694919390921691565b3480156102b057600080fd5b506101486102bf36600461193e565b610a67565b3480156102d057600080fd5b506102e76102df3660046118d6565b600092915050565b604051901515815260200161011f565b34801561030357600080fd5b50600154610317906001600160a01b031681565b6040516001600160a01b03909116815260200161011f565b61014861033d3660046118a4565b611157565b60008060008060008061035861025589896108bc565b949d939c50919a509850965090945092505050565b600083815260208190526040902054606084901c906001600160601b038516906001600160a01b031633146103bd5760405162461bcd60e51b81526004016103b490611984565b60405180910390fd5b600154604051630e70619560e41b81526001600160a01b0386811660048301529091169063e70619509060240160206040518083038186803b15801561040257600080fd5b505afa158015610416573d6000803e3d6000fd5b505050506040513d601f19601f8201168201806040525081019061043a9190611882565b6104745760405162461bcd60e51b815260206004820152600b60248201526a2bb937b733902a37b5b2b760a91b60448201526064016103b4565b600085815260208190526040908190206001810180546001600160a01b0319166001600160a01b03888116918217909255600290920180546fffffffffffffffffffffffffffffffff19166001600160801b038816908117918290559351918616937ffe8937da95814c69018f7a05dcec87068d26502ab6dabf6516ea314dc1dca32b93610518938793339391600160801b9091046001600160401b0316906119b4565b60405180910390a25050505050565b600082815260208190526040902054606083901c906001600160601b038416906001600160a01b0316331461056e5760405162461bcd60e51b81526004016103b490611984565b600061057a42856119f4565b90506001600160401b0381111561059557506001600160401b035b600085815260208190526040908190206002810180546001600160401b03808616600160801b90810267ffffffffffffffff60801b19841681179485905560019095015495516001600160a01b03808b16977ffe8937da95814c69018f7a05dcec87068d26502ab6dabf6516ea314dc1dca32b97610518978c97339793909416956001600160801b0392831692909416919091179392900416906119b4565b6040516331a9108f60e11b81526004810186905260009030906001600160a01b03891690636352211e9060240160206040518083038186803b15801561067957600080fd5b505afa15801561068d573d6000803e3d6000fd5b505050506040513d601f19601f820116820180604052508101906106b191906116c7565b6001600160a01b0316146106c457600080fd5b60006106d042846119f4565b90506001600160401b038111156106eb57506001600160401b035b836001600160801b031684146107345760405162461bcd60e51b815260206004820152600e60248201526d5072696365206f766572666c6f7760901b60448201526064016103b4565b61073e8888611693565b604080516080810182526001600160a01b03808a16825288811660208084019182526001600160801b03808b168587019081526001600160401b03808a166060880190815260008a81529485905293889020965187549087166001600160a01b031991821617885594516001808901805492891692909716919091179095559051600290960180549351909116600160801b026001600160c01b0319909316959091169490941717909255905491516308d3fed360e01b815292945016906308d3fed3906108249085908a906004019182526001600160a01b0316602082015260400190565b600060405180830381600087803b15801561083e57600080fd5b505af1158015610852573d6000803e3d6000fd5b5050604080518a81526001600160a01b038a811660208301528981168284015260608201899052608082018690529151918c1693507e8f298a385d495e86787887da324d1603491ea0ea157acffd6c5851d6ddfa2f925081900360a00190a2509695505050505050565b60006108d183836001600160401b0316611693565b9392505050565b600081815260208190526040902054606082901c906001600160601b038316906001600160a01b0316331461091f5760405162461bcd60e51b81526004016103b490611984565b6000838152602081905260409081902080546001600160a01b03199081168255600182018054909116905560020180546001600160c01b0319169055516323b872dd60e01b81526001600160a01b038316906323b872dd9061098990309033908690600401611960565b600060405180830381600087803b1580156109a357600080fd5b505af11580156109b7573d6000803e3d6000fd5b5050600154604051632084212160e11b8152600481018790523360248201526001600160a01b03909116925063410842429150604401600060405180830381600087803b158015610a0757600080fd5b505af1158015610a1b573d6000803e3d6000fd5b50505050816001600160a01b03167f8b0a052bd72fec557d5735593db719bcb565d7afec8d76ee165e317e8cc9840982604051610a5a91815260200190565b60405180910390a2505050565b600082815260208190526040902060020154606083901c906001600160601b0384169042600160801b9091046001600160401b031611610ad85760405162461bcd60e51b815260206004820152600c60248201526b496e76616c69642073616c6560a01b60448201526064016103b4565b6000848152602081905260409020600101546001600160a01b0316610b2f5760405162461bcd60e51b815260206004820152600d60248201526c15dc9bdb99c81c185e5b595b9d609a1b60448201526064016103b4565b6000848152602081905260409020600201546001600160801b0316831015610b905760405162461bcd60e51b8152602060048201526014602482015273125b9cdd59999a58da595b9d081c185e5b595b9d60621b60448201526064016103b4565b600084815260208190526040908190206001015490516323b872dd60e01b81526001600160a01b03909116906323b872dd90610bd490339030908890600401611960565b602060405180830381600087803b158015610bee57600080fd5b505af1158015610c02573d6000803e3d6000fd5b505050506040513d601f19601f82011682018060405250810190610c269190611882565b5060405163152a902d60e11b8152600481018290526024810184905260009081906001600160a01b03851690632a55205a90604401604080518083038186803b158015610c7257600080fd5b505afa158015610c86573d6000803e3d6000fd5b505050506040513d601f19601f82011682018060405250810190610caa91906117ef565b91509150600061271086600160009054906101000a90046001600160a01b03166001600160a01b0316630e716d976040518163ffffffff1660e01b815260040160206040518083038186803b158015610d0257600080fd5b505afa158015610d16573d6000803e3d6000fd5b505050506040513d601f19601f82011682018060405250810190610d3a91906118bd565b610d449190611a2e565b610d4e9190611a0c565b60008881526020818152604091829020600190810154905483516331056e5760e21b815293519495506001600160a01b039182169463a9059cbb94919092169263c415b95c92600480840193829003018186803b158015610dae57600080fd5b505afa158015610dc2573d6000803e3d6000fd5b505050506040513d601f19601f82011682018060405250810190610de691906116c7565b6040516001600160e01b031960e084901b1681526001600160a01b03909116600482015260248101849052604401602060405180830381600087803b158015610e2e57600080fd5b505af1158015610e42573d6000803e3d6000fd5b505050506040513d601f19601f82011682018060405250810190610e669190611882565b506000878152602081905260409081902060010154905163a9059cbb60e01b81526001600160a01b038581166004830152602482018590529091169063a9059cbb90604401602060405180830381600087803b158015610ec557600080fd5b505af1158015610ed9573d6000803e3d6000fd5b505050506040513d601f19601f82011682018060405250810190610efd9190611882565b506000878152602081905260409020600181015490546001600160a01b039182169163a9059cbb911684610f31858b611a4d565b610f3b9190611a4d565b6040516001600160e01b031960e085901b1681526001600160a01b0390921660048301526024820152604401602060405180830381600087803b158015610f8157600080fd5b505af1158015610f95573d6000803e3d6000fd5b505050506040513d601f19601f82011682018060405250810190610fb99190611882565b506040516323b872dd60e01b81526001600160a01b038616906323b872dd90610fea90309033908990600401611960565b600060405180830381600087803b15801561100457600080fd5b505af1158015611018573d6000803e3d6000fd5b50506001805460008b81526020819052604090819020805493015490516346eb67ef60e01b8152600481018d90526001600160a01b0393841660248201523360448201529083166064820152608481018b9052911692506346eb67ef915060a401600060405180830381600087803b15801561109357600080fd5b505af11580156110a7573d6000803e3d6000fd5b50505060008881526020818152604091829020805460019091015483518981526001600160a01b03918216938101939093529282018a90523393508216918816907f8484265a68fd7cea22f85d6a338d7534f34ae4ff7d204bfa9faaec9e9e696ba39060600160405180910390a4505050600093845250505060208190526040902080546001600160a01b03199081168255600182018054909116905560020180546001600160c01b0319169055565b600081815260208190526040902060020154606082901c906001600160601b0383169042600160801b9091046001600160401b0316116111c85760405162461bcd60e51b815260206004820152600c60248201526b496e76616c69642073616c6560a01b60448201526064016103b4565b6000838152602081905260409020600101546001600160a01b0316156112205760405162461bcd60e51b815260206004820152600d60248201526c15dc9bdb99c81c185e5b595b9d609a1b60448201526064016103b4565b6000838152602081905260409020600201546001600160801b03163410156112815760405162461bcd60e51b8152602060048201526014602482015273125b9cdd59999a58da595b9d081c185e5b595b9d60621b60448201526064016103b4565b60405163152a902d60e11b81526004810182905234602482015260009081906001600160a01b03851690632a55205a90604401604080518083038186803b1580156112cb57600080fd5b505afa1580156112df573d6000803e3d6000fd5b505050506040513d601f19601f8201168201806040525081019061130391906117ef565b91509150600061271034600160009054906101000a90046001600160a01b03166001600160a01b0316630e716d976040518163ffffffff1660e01b815260040160206040518083038186803b15801561135b57600080fd5b505afa15801561136f573d6000803e3d6000fd5b505050506040513d601f19601f8201168201806040525081019061139391906118bd565b61139d9190611a2e565b6113a79190611a0c565b9050600160009054906101000a90046001600160a01b03166001600160a01b031663c415b95c6040518163ffffffff1660e01b815260040160206040518083038186803b1580156113f757600080fd5b505afa15801561140b573d6000803e3d6000fd5b505050506040513d601f19601f8201168201806040525081019061142f91906116c7565b6001600160a01b03166108fc829081150290604051600060405180830381858888f19350505050158015611467573d6000803e3d6000fd5b506040516001600160a01b0384169083156108fc029084906000818181858888f1935050505015801561149e573d6000803e3d6000fd5b506000868152602081905260409020546001600160a01b03166108fc836114c58434611a4d565b6114cf9190611a4d565b6040518115909202916000818181858888f193505050501580156114f7573d6000803e3d6000fd5b506040516323b872dd60e01b81526001600160a01b038616906323b872dd9061152890309033908990600401611960565b600060405180830381600087803b15801561154257600080fd5b505af1158015611556573d6000803e3d6000fd5b50506001805460008a81526020819052604090819020805493015490516346eb67ef60e01b8152600481018c90526001600160a01b0393841660248201523360448201529083166064820152346084820152911692506346eb67ef915060a401600060405180830381600087803b1580156115d057600080fd5b505af11580156115e4573d6000803e3d6000fd5b50505060008781526020818152604091829020805460019091015483518981526001600160a01b039182169381019390935234838501529251339450908316928916917f8484265a68fd7cea22f85d6a338d7534f34ae4ff7d204bfa9faaec9e9e696ba3919081900360600190a45050506000928352505060208190526040902080546001600160a01b03199081168255600182018054909116905560020180546001600160c01b0319169055565b60006116b26bffffffffffffffffffffffff19606085901b16826119f4565b90506108d16001600160601b038316826119f4565b6000602082840312156116d957600080fd5b81516108d181611a90565b600080600080608085870312156116fa57600080fd5b843561170581611a90565b9350602085013561171581611a90565b92506040850135915060608501356001600160401b038082111561173857600080fd5b818701915087601f83011261174c57600080fd5b81358181111561175e5761175e611a7a565b604051601f8201601f19908116603f0116810190838211818310171561178657611786611a7a565b816040528281528a602084870101111561179f57600080fd5b82602086016020830137600060208483010152809550505050505092959194509250565b600080604083850312156117d657600080fd5b82356117e181611a90565b946020939093013593505050565b6000806040838503121561180257600080fd5b825161180d81611a90565b6020939093015192949293505050565b60008060008060008060c0878903121561183657600080fd5b863561184181611a90565b955060208701359450604087013561185881611a90565b9350606087013561186881611a90565b9598949750929560808101359460a0909101359350915050565b60006020828403121561189457600080fd5b815180151581146108d157600080fd5b6000602082840312156118b657600080fd5b5035919050565b6000602082840312156118cf57600080fd5b5051919050565b600080604083850312156118e957600080fd5b8235915060208301356118fb81611a90565b809150509250929050565b60008060006060848603121561191b57600080fd5b83359250602084013561192d81611a90565b929592945050506040919091013590565b6000806040838503121561195157600080fd5b50508035926020909101359150565b6001600160a01b039384168152919092166020820152604081019190915260600190565b602080825260169082015275139bdd081bdddb995c881bdc881a5d195b481cdbdb1960521b604082015260600190565b9485526001600160a01b0393841660208601529190921660408401526001600160801b0390911660608301526001600160401b0316608082015260a00190565b60008219821115611a0757611a07611a64565b500190565b600082611a2957634e487b7160e01b600052601260045260246000fd5b500490565b6000816000190483118215151615611a4857611a48611a64565b500290565b600082821015611a5f57611a5f611a64565b500390565b634e487b7160e01b600052601160045260246000fd5b634e487b7160e01b600052604160045260246000fd5b6001600160a01b03811681146101f757600080fdfea2646970667358221220b585720aec37e4f38dfe85badf31975e114cf994e1168e3b9c4e6ca95a93445364736f6c63430008070033",
    "immutableReferences": {},
    "source": "// SPDX-License-Identifier: Apache-2.0\r\npragma solidity ^0.8.0;\r\nimport '@openzeppelin/contracts/token/ERC721/IERC721.sol';\r\nimport \"@openzeppelin/contracts/token/ERC721/IERC721Receiver.sol\";\r\nimport '@openzeppelin/contracts/token/ERC20/IERC20.sol';\r\nimport './metaMaster.sol';\r\nimport './NFTInfoStorage.sol';\r\nimport './RecordPacker.sol';\r\nimport './NFTCollection.sol';\r\n\r\ncontract salePlain is ISales, RecordPacker, IERC721Receiver{\r\n    struct salePlainItem {\r\n       address seller;\r\n       address token;\r\n       uint128 price;\r\n       uint64 duetime;\r\n    }\r\n\r\n    mapping (uint256 => salePlainItem) saleItems;\r\n\r\n    address public masterAddress;\r\n\r\n    constructor(address master){\r\n        masterAddress = master;\r\n    }\r\n\r\n    //Owner Interaction\r\n    function create(address _contract, uint _tokenId, address seller,\r\n        address _token, uint _price, uint _duration) external override returns (uint record){\r\n            //check\r\n            require(IERC721(_contract).ownerOf(_tokenId) == address(this));\r\n            uint _due = _duration + block.timestamp;\r\n            if (_due > type(uint64).max) _due = type(uint64).max;\r\n            require(_price == uint256(uint128(_price)), 'Price overflow');\r\n            //update\r\n            record = packRecord(_contract, uint96(_tokenId));\r\n            saleItems[record] = salePlainItem(seller, _token, uint128(_price), uint64(_due));\r\n            //record\r\n            NFTInfoStorage(masterAddress).recordNewItem(record, seller);\r\n            emit CreateSale(_contract, _tokenId, seller, _token, _price, _due);\r\n        }\r\n\r\n    function cancel(uint _saleId) external override{\r\n        (address _contract, uint _tokenId) = resovleRecord(_saleId);\r\n        //check\r\n        require(saleItems[_saleId].seller == msg.sender , 'Not owner or item sold');\r\n        //update\r\n        delete saleItems[_saleId];\r\n        IERC721(_contract).transferFrom(address(this), msg.sender, _tokenId);\r\n        //record\r\n        NFTInfoStorage(masterAddress).recordItemCancel(_saleId, msg.sender);\r\n        emit CancelSale(_contract, _tokenId);\r\n    }\r\n\r\n    function updatePrice(uint _saleId, address _token, uint _price) external override{\r\n        (address _contract, uint _tokenId) = resovleRecord(_saleId);\r\n        //check\r\n        require(saleItems[_saleId].seller == msg.sender , 'Not owner or item sold');\r\n        require(metaMaster(masterAddress).tokenIsSupported(_token), 'Wrong Token');\r\n        //update\r\n        saleItems[_saleId].token = _token;\r\n        saleItems[_saleId].price = uint128(_price);\r\n        //record\r\n        emit UpdateSale(_contract, _tokenId, msg.sender,\r\n            saleItems[_saleId].token, saleItems[_saleId].price, saleItems[_saleId].duetime);\r\n    }\r\n\r\n    function updateDuration(uint _saleId, uint _duration) external override{\r\n        (address _contract, uint _tokenId) = resovleRecord(_saleId);\r\n        //check\r\n        require(saleItems[_saleId].seller == msg.sender , 'Not owner or item sold');\r\n        uint _due = _duration + block.timestamp;\r\n        if (_due > type(uint64).max) _due = type(uint64).max;\r\n        //update\r\n        saleItems[_saleId].duetime = uint64(_due);\r\n        //record\r\n        emit UpdateSale(_contract, _tokenId, msg.sender,\r\n            saleItems[_saleId].token, saleItems[_saleId].price, saleItems[_saleId].duetime);\r\n    }\r\n\r\n    //Customer Interaction\r\n    function bidWithValue(uint _saleId) external override payable{\r\n        (address _contract, uint _tokenId) = resovleRecord(_saleId);\r\n        //check\r\n        require(saleItems[_saleId].duetime > block.timestamp, 'Invalid sale');\r\n        require(saleItems[_saleId].token == address(0), 'Wrong payment');\r\n        require(msg.value >= saleItems[_saleId].price, 'Insufficient payment');\r\n        //handle payment\r\n        (address royaltiesReceiver, uint royalties) = NFTCollection(_contract).royaltyInfo(_tokenId, msg.value);\r\n        uint fee = metaMaster(masterAddress).feeInBips() * msg.value / 10000;\r\n        payable(metaMaster(masterAddress).feeCollector()).transfer(fee);\r\n        payable(royaltiesReceiver).transfer(royalties);\r\n        payable(saleItems[_saleId].seller).transfer(msg.value-fee-royalties);\r\n        //delivery as no auction in place\r\n        IERC721(_contract).transferFrom(address(this), msg.sender, _tokenId);\r\n        //record\r\n        NFTInfoStorage(masterAddress).recordItemSold(_saleId, saleItems[_saleId].seller, msg.sender,\r\n            saleItems[_saleId].token, msg.value);\r\n        emit ConfirmSale(_contract, _tokenId, saleItems[_saleId].seller, msg.sender,\r\n            saleItems[_saleId].token, msg.value);\r\n        //update\r\n        delete saleItems[_saleId];\r\n\r\n    }\r\n\r\n    function bidWithToken(uint _saleId, uint _amount) external override{\r\n        (address _contract, uint _tokenId) = resovleRecord(_saleId);\r\n        //check\r\n        require(saleItems[_saleId].duetime > block.timestamp, 'Invalid sale');\r\n        require(saleItems[_saleId].token != address(0), 'Wrong payment');\r\n        require(_amount >= saleItems[_saleId].price, 'Insufficient payment');\r\n        //handle payment\r\n        IERC20(saleItems[_saleId].token).transferFrom(msg.sender, address(this), _amount);\r\n        (address royaltiesReceiver, uint royalties) = NFTCollection(_contract).royaltyInfo(_tokenId, _amount);\r\n        uint fee = metaMaster(masterAddress).feeInBips() * _amount / 10000;\r\n        IERC20(saleItems[_saleId].token).transfer(metaMaster(masterAddress).feeCollector(), fee);\r\n        IERC20(saleItems[_saleId].token).transfer(royaltiesReceiver, royalties);\r\n        IERC20(saleItems[_saleId].token).transfer(saleItems[_saleId].seller, _amount-fee-royalties);\r\n        //delivery as no auction in place\r\n        IERC721(_contract).transferFrom(address(this), msg.sender, _tokenId);\r\n        //record\r\n        NFTInfoStorage(masterAddress).recordItemSold(_saleId, saleItems[_saleId].seller, msg.sender,\r\n            saleItems[_saleId].token, _amount);\r\n        emit ConfirmSale(_contract, _tokenId, saleItems[_saleId].seller, msg.sender,\r\n            saleItems[_saleId].token, _amount);\r\n        //update\r\n        delete saleItems[_saleId];\r\n    }\r\n\r\n    function claim(uint _saleId) external pure override{\r\n        _saleId;\r\n        return;\r\n    }\r\n\r\n    function claimable(uint _saleId, address _claimer) external pure override returns (bool){\r\n        _saleId;\r\n        _claimer;\r\n        return false;\r\n    }\r\n\r\n    //Views\r\n    function getSaleId(address _contract, uint _tokenId) public pure override returns (uint _saleId){\r\n        return packRecord(_contract, uint64(_tokenId));\r\n    }\r\n\r\n    function getSaleInfo(uint _saleId) public view override returns (bool _isOpen, address _token,\r\n         uint _price, uint _due, address _seller, address _bidder){\r\n        _token = saleItems[_saleId].token;\r\n        _price = saleItems[_saleId].price;\r\n        _due = saleItems[_saleId].duetime;\r\n        _seller = saleItems[_saleId].seller;\r\n        _isOpen = _due > block.timestamp;\r\n        _bidder;\r\n    }\r\n\r\n    function getSaleInfo(address _contract, uint _tokenId) public override view\r\n    returns (bool, address, uint, uint, address, address){\r\n        return getSaleInfo(getSaleId(_contract, _tokenId));\r\n    }\r\n\r\n    function onERC721Received(\r\n        address,\r\n        address,\r\n        uint256,\r\n        bytes memory\r\n    ) public virtual override returns (bytes4) {\r\n        return this.onERC721Received.selector;\r\n    }\r\n}\r\n",
    "sourcePath": "E:\\\\metaLifeProtocol\\contracts\\salePlain.sol",
    "compiler": {
        "name": "solc",
        "version": "0.8.7+commit.e28d00a7.Emscripten.clang"
    },
    "schemaVersion": "3.4.7",
    "updatedAt": "2022-07-20T15:04:49.416Z",
    "devdoc": {
        "kind": "dev",
        "methods": {},
        "version": 1
    },
    "userdoc": {
        "kind": "user",
        "methods": {},
        "version": 1
    }
}